:020000040800F2
:100000009819002005010008C7220008F91C000803
:10001000C5220008E1020008FD25000800000000DC
:10002000000000000000000000000000CB220008DB
:100030003303000800000000C9220008ED22000878
:100040001F0100081F0100081F0100081F01000810
:100050001F0100081F0100081F0100081F01000800
:100060001F0100081F0100081F010008E502000829
:100070001F0100081F010008F1020008FD0200082E
:100080001F0100081F0100081F0100081F010008D0
:100090001F0100081F0100081F0100081F010008C0
:1000A0001F0100081F0100081F0100081F010008B0
:1000B0001F0100081F0100081F0100081F010008A0
:1000C0001F0100081F0100081F0100081F01000890
:1000D0001F010008F12500081F0100081F0100088A
:1000E0001F0100081F0100081F010008DFF810D0E1
:1000F00000F042F800480047CD270008AFF3008029
:10010000981900200648804706480047FEE7FEE7AA
:10011000FEE7FEE7FEE7FEE7FEE7FEE7FEE7FEE7B7
:1001200065230008ED000008D2B201E000F8012BC1
:10013000491EFBD270470022F6E710B513460A4667
:1001400004461946FFF7F0FF204610BD30B50B46B8
:10015000014600202022012409E021FA02F59D42F7
:1001600005D303FA02F5491B04FA02F52844151ECB
:10017000A2F10102F1DC30BD064C074D06E0E0685B
:1001800040F0010394E8070098471034AC42F6D3DE
:10019000FFF7B0FF283C0008483C000870B5044653
:1001A00000688168C943C90717D1816821F001013E
:1001B000816000F0BDFD05460AE000BF00F0B8FD1B
:1001C000401B022804D920688068C043C00706D0BD
:1001D00020688068C043C007F0D0002070BDA06ACE
:1001E00040F01000A062E06A40F00100E0620120EF
:1001F00070BD10B50146406A826A12F0500F05D0FA
:10020000006A026BBDE8104008461047816A41F45D
:100210000071816201688968C1F3424107290CD1EC
:10022000017B51B9816A21F480718162816AC904BC
:1002300003D4816A41F00101816200F067F910BDC9
:1002400010B5406A816A41F040018162C16A41F0A3
:100250000401C16200F05CF910BD10B5406A00F005
:1002600056F910BDF8B5002604460096006881686E
:10027000C943C9072DD0816841F00101816016484A
:1002800016490068B0FBF1F000E0401E0090002825
:10029000FBD100F04DFD054616E000BF00F048FD23
:1002A000401B022810D920688068C043C0070BD0CB
:1002B000A06A40F01000A062E06A40F00100E06235
:1002C00084F824600120F8BD20688068C043C0071E
:1002D000E4D10020F8BD00001400002040420F00CF
:1002E000FEE70000014800F00BBB00002C140020CA
:1002F000014800F005BB000050150020014800F047
:10030000FFBA00000C15002030B590F840500124D1
:10031000AC40C56B6C60046863604368102B036875
:1003200003D099600068C26030BD9A600068C16007
:1003300030BD704772B6FEE7F8B50025044600955B
:1003400090F8240001280BD0012084F824002046D6
:10035000FFF724FF2046FFF785FF060002D050E09C
:100360000220F8BDA06A20F4885040F00200A0628C
:10037000022000F005FF25490968B1FBF0F04000BC
:1003800000E0401E00900028FBD12068816841F009
:100390000801816000F0CCFC074608E000F0C8FCD2
:1003A000C01B0A2803D920688068000715D420687C
:1003B00080680007F2D42068816841F00401816000
:1003C00000F0B6FC074612E000F0B2FCC01B0A28A1
:1003D0000DD920688068400709D5A06A20F0020086
:1003E00040F01000A06284F824500120F8BD20687D
:1003F00080684007E8D4A06A20F0020040F00100C5
:10040000A06284F824503046F8BD0000140000209B
:10041000F8B50024009490F824202546012A12D033
:10042000012280F824204A681F23072A0DD206687B
:10043000776B521E02EB820293409F430B689340FE
:100440001F43776319E00220F8BD06680D2A0AD21F
:10045000376BD21F02EB820293409F430B6893409D
:100460001F43376309E0F76A0D3A02EB82029340BB
:100470009F430B6893401F43F7620A68072306688F
:100480000A2A0AD3F7680A3A02EB420293409F43D2
:100490008B6893401F43F76008E0376902EB420224
:1004A00093409F438B6893401F4337610A68102A2B
:1004B00001D0112A20D1124B02689A4217D19368B9
:1004C0001B0219D4936843F4000393600968102950
:1004D00012D10C490C4A0968B1FBF2F101EB810120
:1004E000490000E0491E00910029FBD104E0816A27
:1004F00041F020018162012480F824502046F8BD9B
:10050000002401401400002040420F007047704753
:10051000704700002DE9F0414FF0000704003D4610
:100520007ED0A06A002628B9E66284F824602046BE
:1005300000F07EF82046FFF731FEA16AC90600D41C
:1005400020B1A06A40F01000A06269E0A16A21F425
:10055000885141F00201A1626268E169237B0A438C
:1005600047EA43010A43A1684FF48077B94209D0B2
:10057000012907D05FF0000194F814C0BCF1010F0D
:1005800002D00AE03946F7E7F3B1A36A43F020034B
:10059000A362E36A43F00103E3622368D3F804C073
:1005A0002CF4694C4CEA010CC3F804C021688B6838
:1005B000DFF870C003EA0C0313438B60A168B942F3
:1005C0000BD0012909D00CE0DFF85CC0A3690CEB6B
:1005D00043330B4343F40061DFE7218A0D05A5F5A2
:1005E00080152168CB6A23F470032B43CB6221680A
:1005F00089680E4B1940914208D1E662A16A21F048
:10060000020141F00101A162BDE8F081A06A20F081
:10061000020040F01000A062E06A40F00100E062D9
:100620000120F1E7FDF7E1FF00E0FFFFFE0E1FFFF5
:1006300070B586B000250095019502950395064694
:100640002D4B02682D4903242D489A423BD18A69DB
:1006500042F400728A618A6902F4007204928A6923
:1006600042F004028A618A6902F0040204928A69F3
:1006700042F008028A61896901F008010491FF21B2
:10068000CDE90014694600F05DFA009469461D4802
:10069000019400F057FA1D4C1B48C4E90005802066
:1006A000C4E9025040002061800060612020C4E95C
:1006B0000605204600F0CEF908B1FFF73BFE346294
:1006C000666206B070BD124B9A42FAD18A6942F452
:1006D00080628A618A6902F4806204928A6942F0C7
:1006E00004028A618969009401F004010491019473
:1006F000694600F027FAE4E70024014000100240B8
:1007000000080140000C0140080002402C140020A9
:10071000002801402DE9F047894604463B4900681E
:100720003B4F0E1D9046884201D0B84207D1306839
:1007300010F4702F03D001252846BDE8F08794F807
:10074000240001280CD0012084F824002046FFF763
:1007500089FD05004FF0000004D084F82400EBE789
:100760000220EAE7A16A40F60162914341F48071F8
:10077000A1622168B94218D1326812F4702F14D0E6
:10078000A16A41F48011A1623168490505D5A16AC9
:1007900021F4005141F48051A162A16AC9040AD533
:1007A000E16A21F00601E16206E0A26A22F4801209
:1007B000A2624968E9E7E06284F82400216A1548EA
:1007C0008862216A1448C862216A14480863216853
:1007D0006FF0020008602068816841F480718160D8
:1007E000216843464A464C31206A00F061F920688E
:1007F0008168C1F342410729816803D041F4801127
:10080000816099E741F4A001FAE70000002401406B
:1008100000280140F30100085B02000841020008C3
:1008200010B590F821100022022905D0042181631F
:1008300080F82020012010BD01680B6823F00E0312
:100840000B6001680B6823F001030B6090F84030E7
:10085000C46B012101FA03F3636080F8211080F872
:100860002020104610BD000010B590F82110002483
:10087000022903D00421816301243DE001680A6854
:1008800022F00E020A6001680A6822F001020A6082
:100890001A4A0168914201D1012121E0174A14321C
:1008A000914201D110211BE0144A2832914201D11A
:1008B000891515E0114A3C32914201D189140FE0AB
:1008C0000E4A5032914202D14FF4803108E00B4A77
:1008D0006432914202D14FF4801101E04FF08071F7
:1008E000064A083A5160012180F82110002180F861
:1008F0002010416B01B18847204610BD080002401E
:100900002DE9F05FC16B0C6801680B68D0F840C03E
:10091000042202FA0CF2494DDFF824A1494E4A4F55
:10092000DFF828B1DFF828E122422CD05A072AD577
:100930000A68920603D40A6822F004020A60016879
:10094000A94201D1042219E0514501D1402215E00C
:10095000B14202D14FF4806210E0B94202D14FF4AB
:1009600080420BE0594502D14FF4802206E07145E8
:1009700002D14FF4800201E04FF080622F49083924
:100980004A60C16A3BE04FF0020808FA0CF818EA26
:10099000040F4FF000094FF0010235D05FEA837871
:1009A00032D50B689B0605D40B6823F00A030B6055
:1009B00080F821200168A94201D1022219E05145A5
:1009C00001D1202215E0B14202D14FF4007210E0B3
:1009D000B94202D14FF400520BE0594502D14FF415
:1009E000003206E0714502D14FF4001201E04FF0F1
:1009F0000072124908394A6080F82090816A002903
:100A00001AD0BDE8F05F0847082505FA0CF5254225
:100A100012D01B0710D50B6823F00E030B6090F863
:100A20004010C36B02FA01F15960826380F8212003
:100A300080F82090016BE2E7BDE8F09F08000240DB
:100A40001C000240300002404400024058000240B6
:100A50006C00024030B528B308C813491422194469
:100A6000B1FBF2F18900C163104981630221417732
:100A70001A6843F6F0718A43D0E900142143D0E9A3
:100A800002452C432143046921434469214384697D
:100A9000214311431960002141630122427701770C
:100AA000084630BD012030BDF8FFFDBF0000024008
:100AB00070B5044690F82000002501280CD00120D4
:100AC00084F8200094F821600020012E06D084F8DC
:100AD00020000225284670BD022070BD022684F841
:100AE0002160A0632068066826F0010606602046A3
:100AF000FFF70AFCE06A00282068016802D041F094
:100B00000E0106E021F0040101602068016841F057
:100B10000A0101602068016841F001010160D9E724
:100B200070B5044600F004F90546601C02D0044884
:100B30000078044400F0FCF8401BA042FAD370BDDA
:100B4000080000202DE9F84FDFF8B8910024A9F142
:100B5000040B23460F2709F1040AABF1040EC9E088
:100B60000125A5402A40AA427DD1674ED1F804C094
:100B7000ACEB0608B44532D014DCBCF1030F3AD01C
:100B800009DCBCF1000F2AD0BCF1010F1CD0BCF174
:100B9000020F31D11DE0BCF1110F17D0BCF1120FC3
:100BA0002AD119E0B8F5881F19D006DCB8F5803FC6
:100BB00015D0B8F5801F1FD111E0B8F5001F0ED079
:100BC000B8F5041F18D10AE0CB6815E0CB681B1DEF
:100BD00012E0CB6808330FE0CB680C330CE08B6875
:100BE0002BB1012B4FF0080303D0456104E004232F
:100BF00002E0056100E00023FF2A01D8064601E07B
:100C000000F104064FEA840501D9A5F12005D6F8C4
:100C1000008007FA05FC28EA0C0803FA05F548EA03
:100C20000508C6F800804D68ED0062D5374DAE6905
:100C300046F00106AE61AD6924F0030605F001053A
:100C40000095334D06EB050CDCF80850A607360F6F
:100C500007FA06F825EA0805DFF8B880404503D111
:100C60004FF0000817E044E0DFF8AC80404502D1C7
:100C70004FF001080FE0DFF8A480404502D14FF0AB
:100C8000020808E0DFF89880404502D14FF00308E1
:100C900001E04FF0040808FA06F848EA0508CCF825
:100CA00008804D68D9F80060ED024D4601D5164325
:100CB00000E096432E604D68DAF80060AD025546BC
:100CC00001D5164300E096432E604D68DBF80060C6
:100CD000AD035D4601D5164300E096432E604D6896
:100CE000DEF80060ED03754601D5164300E096433B
:100CF0002E60641C0D682A46E5407FF431AFBDE8E4
:100D0000F88F00000804014000001110001002409C
:100D10000000014000080140000C014000100140AB
:100D2000001401400AB1016170470904FBE70000AB
:100D300001488068704700000800002070B504007A
:100D400025D094F83D00002520B984F83C50204679
:100D500000F050F9242084F83D002068016821F05B
:100D6000010101602068016841F4004101602068D0
:100D7000016821F40041016000F060FB4D4A6168A8
:100D8000914201D84C4900E04C49884201D20120EF
:100D900070BD4B492368B0FBF1F15E6826F03F0659
:100DA0000E435E606368934206D94FF496735943CD
:100DB0004FF47A73B1FBF3F12368491C1E6A26F0E5
:100DC0003F06314319626168914210D84900401EC4
:100DD000B0FBF1F2521CC2F30B02042A01D2042030
:100DE00022E0B0FBF1F0401CC0F30B001CE0A26855
:100DF000F2B301EBC10303EB0116431EB3FBF6F3A1
:100E00005B1C43F480431B0549D092B301EBC10244
:100E100002EB0111401EB0FBF1F0401CC0F30B00CF
:100E200040F4804040F400402168CA694CF6FF73EA
:100E30009A431043C861D4E907100143206802684F
:100E400022F0C00211430160D4E90301014320688C
:100E5000826848F2FF339A4311438160D4E9050167
:100E600008432168CA6822F0FF021043C86001E00D
:100E70000EE016E02068016841F001010160256480
:100E8000202084F83D00256384F83E50002070BD8A
:100E900001EB4106431EB3FBF6F35B1CB3E70120F5
:100EA000C2E701EB4101401EB0FBF1F0401CC0F372
:100EB0000B00B7E7A086010080841E0000093D00FA
:100EC00040420F002DE9FF4F83B09A46DDE91197AC
:100ED00093460446DDF84080FFF72AFF054694F864
:100EE0003D0020287FD1192301224049204600954A
:100EF00000F09AFF002876D194F83C00012872D0C7
:100F0000012084F83C0020680168C90703D101680A
:100F100041F0010101602068016821F40061016075
:100F2000212084F83D00402084F83E0000262664FD
:100F3000C4F82480A4F82A90608D20852C48E062B3
:100F4000CDE9007553465A462046049900F0ECFE60
:100F500070B930E02A463946204601F00BF858B106
:100F6000206C042804D12068016841F400710160FC
:100F7000012007B0BDE8F08F606A21680078086141
:100F8000606A401C6062218D491E89B22185628D94
:100F9000521E628522685369DB435B070BD469B13B
:100FA00000781061606A401C6062208D401E2085C0
:100FB000608D401E6085208D0028CBD12A463946A1
:100FC000204600F005FF0028CAD154F83D0B016807
:100FD00041F400710160202004F81E09E67766776D
:100FE0000020C6E7FFE70220C3E700000200100070
:100FF0000000FFFF10B586B0002100910191029121
:10100000039100680F4988421AD10F4CA06940F043
:101010000800A061A069694600F008000490C020A3
:10102000009012200190032003900848FFF78AFDEA
:10103000E06940F40010E061E06900F40010049001
:1010400006B010BD0054004000100240000C0140EA
:1010500002488168027811448160704708000020CE
:10106000074810B5016841F010010160032000F04D
:1010700075F80F2000F006F800F024F8002010BDED
:101080000020024070B50D4D04464FF47A71287867
:10109000B1FBF0F00A490968B1FBF0F000F0A4FBE5
:1010A00048B9102C07D200222146501E00F036F815
:1010B00000206C6070BD012070BD000008000020A1
:1010C000140000200C4808B5816941F001018161DC
:1010D000816901F001010091C16941F08051C16154
:1010E000C06900F0805000900448416821F0E06140
:1010F00041F00071416008BD001002400000014055
:10110000002809DB00F01F02012191404009800006
:1011100000F1E020C0F8001170470000F0B40E4B61
:101120001B680C46C3F30223C3F10705042D00D945
:101130000425191D072901D2002300E0DB1E01262A
:1011400006FA05F1491E214099409E40761E164040
:101150003143F0BC01F064BA0CED00E0064900F048
:10116000070208684FF6FF03184040EA0220034ACE
:1011700010430860704700000CED00E00000FA0525
:1011800010B501460020234C012922D0022939D074
:1011900010291DD161682268D20119D51E48C1F3FA
:1011A0008342C903805C0AD561681B4AC1F3404190
:1011B000921E515C194AB2FBF1F1484301E0184913
:1011C00048436168490203D440000321B0FBF1F0B9
:1011D00010BD226AC2F30121012903D1920701D572
:1011E000C80310BD022905D1626A920702D549F6EB
:1011F000404010BD0329FCD121688903F9D54FF285
:10120000244010BD00F02AF96168C1F38131491C06
:101210004900DBE700100240003C000800127A00A1
:1012200000093D002DE9F84305460078354CC0071C
:1012300054D0E0690026C00008D4E06940F0805036
:10124000E061E069012600F0805000902E480168BE
:10125000C90512D40168804641F480710160FFF72E
:1012600067FD074605E000BFFFF762FDC01B64286D
:1012700023D8D8F80000C005F6D5206A10F44070D5
:1012800021D0A98801F4407181421CD0206A1F49F5
:10129000012220F440700A6000220A602062C00728
:1012A00011D0FFF745FD074641F2883808E000BF3E
:1012B000FFF73EFDC11B414502D90320BDE8F8837D
:1012C000206A8007F4D5206A696820F440700843DA
:1012D00020621EB1E06920F08050E061287880072C
:1012E00005D56068A96820F440400843606028780C
:1012F000C00605D56068E96820F480000843606096
:101300000020DBE700100240007000404004424231
:101310002DE9F0470F46050061D0434E306800F0DC
:101320000700B84209D2306820F007003843306027
:10133000306800F00700B84251D128683B4C810763
:1013400012D5400703D5606840F4E06060602878FB
:10135000000703D5606840F4605060606068A96869
:1013600020F0F000084360602878C00728D0686843
:10137000012810D02168022810D0890700292EDA10
:10138000616821F0030101436160FFF7D1FC8046F1
:1013900041F288390DE021688903EFE78901EDE723
:1013A000FFF7C6FCA0EB0801494502D90320BDE8C0
:1013B000F0876068696800F00C00B0EB810FEFD136
:1013C000306800F00700B8420BD9306820F0070001
:1013D00038433060306800F00700B84201D0012087
:1013E000E5E72878400705D56068E96820F4E06003
:1013F000084360602878000706D56068296920F4F2
:10140000605040EAC100606000F038F86168084A46
:10141000C1F30311515CC8400649086006480068E2
:10142000FFF730FE0020C2E700200240001002401B
:10143000103C0008140000200C000020044805495E
:1014400000684968044AC1F30221515CC8407047F2
:101450001400002000100240203C00080448054908
:1014600000684968044AC1F3C221515CC840704712
:101470001400002000100240203C00080E4A516871
:101480000E4801F00C03042B11D0082B0FD10C488F
:10149000C1F38343C903C05C0AD55168084AC1F34C
:1014A0004041921E515C054A5043B0FBF1F0704739
:1014B00004494843704700000010024000127A00BF
:1014C000EE3B000800093D002DE9F84F040070D004
:1014D0002078C04DC00749D06868C0F3810001285A
:1014E00007D06868C0F38100022809D16868C0038A
:1014F00006D52868800339D560680028E7D035E034
:101500006068B0F5803F0BD010B1B0F5A02F11D0BE
:10151000286820F480302860286820F4802002E0C9
:10152000286840F480302860606890B1FFF700FCC4
:1015300006460AE0286840F480202860F0E700BFF3
:10154000FFF7F6FB801B642873D828688003F7D563
:101550000CE0FFF7EDFB064605E000BFFFF7E8FBF8
:10156000801B6428F0D828688003F7D420789A4E2E
:1015700080074FF001094FF0000839D5686810F076
:101580000C0F07D06868C0F38100022809D1686891
:10159000C00306D42868800714D52069012808D123
:1015A00010E02069B0B1C6F80090FFF7C1FB074614
:1015B00005E00AE1FFF7BCFBC01B0228C4D828687D
:1015C0008007F7D52868616920F0F80040EAC1007B
:1015D00028600DE0C6F80080FFF7AAFB074604E08C
:1015E000FFF7A6FBC01B022823D828688007F7D482
:1015F000207800072CD57948A169D9B1C0F80090AE
:10160000FFF796FB074604E0FFF792FBC01B02289A
:101610000FD8686A8007F7D571484FF4FA5100680F
:10162000B0FBF1F0009000BF0098411E0091FAD28B
:101630000EE080E0C0F80080FFF77AFB074604E088
:10164000FFF776FBC01B022875D8686A8007F7D4BD
:101650002078400760D5E8690027C00008D4E86911
:1016600040F08050E861E869012700F08050009068
:101670005C480168C90513D40168834641F4807150
:101680000160FFF755FB824606E000BFFFF750FB05
:10169000A0EB0A0064284ED8DBF80000C005F5D5A1
:1016A000E06801280AD008B1052813D0286A20F084
:1016B00001002862286A20F0040002E0286A40F055
:1016C00001002862E06841F2883B98B1FFF730FBE7
:1016D00082460BE0286A40F004002862EEE700BF73
:1016E000FFF726FBA0EB0A0159455AD8286A800764
:1016F000F6D50CE0FFF71CFB824605E0FFF718FB70
:10170000A0EB0A0159454CD8286A8007F6D41FB1CE
:10171000E86920F08050E861E06988B36968C1F346
:101720008101022944D00228C6F8608004D0FFF766
:10173000FFFA044638E034E0FFF7FAFA074604E01F
:10174000FFF7F6FAC01B02282BD828688001F7D4CF
:10175000206AB0F5803F05D16868A16820F40030A8
:1017600008436860D4E908010843696821F47411EA
:1017700008436860C6F86090FFF7DAFA044606E0AE
:1017800025E000BFFFF7D4FA001B022809D828681B
:101790008001F7D51BE000BFFFF7CAFA001B022843
:1017A00002D90320BDE8F88F28688001F4D40EE048
:1017B0000128F7D06868226A00F48031914204D190
:1017C000616A00F47010884201D00120EAE700202D
:1017D000E8E700000010024000004242800442425C
:1017E000140000200070004010B5401EB0F1807F52
:1017F00001D3012010BD4FF0E02460610F2160177C
:1018000000F00EFF0020A06107202061002010BD25
:1018100070477047F8B5016804460868CA684B69A4
:1018200010F00F0F4FF0000559D003F0010602F43D
:101830009077374365D0C10705D0D10503D5616CDA
:1018400041F001016164410705D5D90703D0616CFE
:1018500041F002016164810705D5D90703D0616CAD
:1018600041F004016164010707D502F02001314312
:1018700003D0616C41F008016164616C00293AD0C9
:10188000800604D5900602D5204600F09BFD206816
:101890004069616CC0F38010090700D460B3204632
:1018A00000F069FD20684069400621D520681430A9
:1018B00050E8001F21F0400140E80012002AF5D155
:1018C000E06BA8B16D494163E06BFEF7CDFF0028E6
:1018D00011D0E06B416B01B0BDE8F04008478306D2
:1018E0000FD593060DD52046BDE8F84000F06ABD3F
:1018F0002046FFF78EFFF8BD2046FFF78AFF65649C
:10190000F8BD266B2023012E7CD1C6067AD5D606DB
:1019100078D508684868009048694FF0020640068C
:1019200040D5E16B086840680004000CE8D0A28D47
:101930008242E5D9E085886920282DD020680C30C6
:1019400050E8001F21F4807140E80012002AF5D110
:101950002068143050E8001F21F0010140E8001217
:10196000002AF5D12068143050E8001F21F0400112
:1019700040E80012002AF5D184F84230256320683F
:101980000C3050E8001F21F0100140E80012002A3E
:10199000F5D1E06BFEF744FF6663A08DE18D401A40
:1019A00081B22AE0A08DE18D401A81B2E08D00283D
:1019B000A6D00029A4D022680C3252E8000F20F4EF
:1019C000907042E80007002FF5D12068143050E8ED
:1019D000002F22F0010240E80027002FF5D184F803
:1019E0004230256320680C3050E8002F22F01002AE
:1019F00040E80023002BF5D166632046FFF708FF7F
:101A0000F8BDFFE705062BD5150629D594F841004A
:101A10002128F5D1A068B0F5805F01D12069B0B16F
:101A2000206A411C2162216800784860E08C401ED9
:101A30000004000CE084E3D12068C16821F080013B
:101A4000C1602068C16841F04001C160D8E7206AE8
:101A50000088C0F308004860206A801C2062E5E727
:101A60004006CDD55006CBD5CA68204622F04002AC
:101A7000CA6084F8413000F03EF9C1E767230008EE
:101A800070B5040004D094F84100002510B106E0C0
:101A9000012070BD84F84050204600F023F8242037
:101AA00084F841002068C16821F40051C1602046DB
:101AB00000F0EAFC2068016921F49041016120688E
:101AC000416921F02A0141612068C16841F4005157
:101AD000C1606564202084F8410084F84200656399
:101AE000002070BDF0B585B0002406460094019436
:101AF0000294039400682D49884255D12C4881698D
:101B000041F480418161816901F4804104918169DE
:101B100041F0040181618069264D00F004000490C9
:101B20004FF400700090022001900320039069465A
:101B30002846FFF707F82815CDE90004694628462E
:101B40000294FEF7FFFF1D4D1B488027C5E90004E6
:101B5000C5E902472C616C61AC612846EC61FEF777
:101B600079FF08B1FEF7E6FBF5636E62134D12488C
:101B70004435143801C5102091C5202045F810497E
:101B8000C5E905400D48EC614430FEF763FF08B13C
:101B9000FEF7D0FBB5630022114625206E62FFF7E9
:101BA000BDFA2520FFF7ACFA05B0F0BD00380140C2
:101BB0000010024000080140580002400C150020AF
:101BC00090F84230202B01D00220704721B11AB189
:101BD0000023036300F0B4BC0120704770B51C4CB7
:101BE0001C48E61C61680025491C6160327801448C
:101BF000FF2A01F8012C21D102780121012A02D00B
:101C0000022A02D002E0217000E025704278012A09
:101C100002D0022A02D002E0617000E06570807894
:101C2000012802D0022802D002E0A17000E0A570D5
:101C300041F288310748FEF77EFA65603570BDE8ED
:101C4000704003490122C91C0348FFF7B9BF0000D7
:101C50000000002044000020C41400202DE9F843B7
:101C6000044690F841001F4616460D46202802D033
:101C70000220BDE8F8837DB176B1002060642120A8
:101C800084F84100FFF754F8A6848046E684A068F3
:101C9000B0F5805F02D003E00120EAE7206910B1CF
:101CA0002E4600250EE000260CE08021204600F0A4
:101CB00062FCA0B9AEB116F8010B21684860E08C57
:101CC000401EE084E08C43464FF00002009700285D
:101CD000EBD14FF04001204600F04DFC30B1032025
:101CE000C7E735F8020BC0F30800E6E7202084F8C8
:101CF00041000020BDE77047FEE701684A69D24312
:101D000052050FD46FF480624A61002140F8301F01
:101D1000202242738173026942F00402026101735E
:101D200001207047002070472DE9F8430446006801
:101D30000D46DDE9089701689846164641F4807122
:101D400001604B4600224FF001112046009700F041
:101D50006BF848B120680068C00502D54FF40070E8
:101D600020640320BDE8F883216805F0FE000861C7
:101D70003B464A461549204600F09EF888B920683F
:101D80004169806900903A464946204600F0F2F8E1
:101D900048B1206C042804D12068016841F4007126
:101DA00001600120DEE7F5B2B8F1010F09D021682A
:101DB000300A08613A464946204600F0DBF8002820
:101DC000E7D1206805610020CCE700000200010097
:101DD00070B516460D4604461EE02046FFF78DFFFF
:101DE00008B1012070BD681C16D0FEF7A1FF801B52
:101DF000A84200D885B920684069C04340070BD588
:101E0000002044F8300F20216173A073216941F054
:101E1000200121612073E4E720684069C043400746
:101E2000DBD4002070BD00002DE9F047984617462E
:101E30000D460446C1F30746DDF820902AE000BFB6
:101E4000B8F1FF3F26D0FEF773FFA0EB0901414533
:101E500002D8B8F1000F1DD12068012E16D080697C
:101E600025EA00000004000C12D00020B84211D175
:101E7000002044F8300F20216173A073216941F0E4
:101E80002001216120730120BDE8F0874069E7E768
:101E90000120EBE72068012E0AD0806925EA0000C6
:101EA0000004000C06D00020B842C9D00020EBE7A7
:101EB0004069F3E70120F7E72DE9F0479846164619
:101EC0000D4604464FF000094FF0200AC1F30747C2
:101ED00023E020684069C043400515D420680168AC
:101EE00041F40071016021686FF480604861C4F8BA
:101EF000309084F83DA084F83E90216C41F00401BC
:101F0000216484F83C9021E0701C06D0FEF710FF9D
:101F1000A0EB0800B04203D816B1012F1FD021E07A
:101F20002068012F15D0806925EA00000004000C0C
:101F300018D000BF44F8309F84F80DA084F80E90AC
:101F4000216941F02001216184F80C900120BDE855
:101F5000F087406925EA00000004000CEAD12068FF
:101F6000406901E02068806925EA00000004000C57
:101F7000AFD1ECE770B516460D4604461EE020468C
:101F8000FFF7BBFE08B1012070BD681C16D0FEF73C
:101F9000CFFE801BA84200D885B920684069C043A5
:101FA00000060BD5002044F8300F20216173A07388
:101FB000216941F0200121612073E4E72068406934
:101FC000C0430006DBD4002070BD38B504460025B0
:101FD0008DF8005080B201236A466B2100F076F93B
:101FE00007208DF80000A0B201236A46192100F0F5
:101FF0006DF98DF80050A0B201236A461C2100F053
:1020000065F98DF80050A0B201236A461B2100F04B
:102010005DF9002038BD0000FEB500243E48009464
:1020200001943C4902940160891581600125057382
:1020300004750A2606614FF460214460C161FEF711
:1020400069FA08B1FEF776F9CDE90045072469463B
:1020500031480294FEF7DCF908B1FEF76BF9009500
:10206000022569462C480195FEF7D2F908B1FEF722
:1020700061F900950325694627480195FEF7C8F9DF
:1020800008B1FEF757F900950425694622480195E5
:10209000FEF7BEF908B1FEF74DF900950525694632
:1020A0001D480195FEF7B4F908B1FEF743F9009514
:1020B0000625694618480195FEF7AAF908B1FEF70A
:1020C00039F9CDE9005469461348FEF7A1F908B182
:1020D000FEF730F90094082469460F480194FEF792
:1020E00097F908B1FEF726F90094092469460A48D1
:1020F0000194FEF78DF908B1FEF71CF9CDE9004611
:1021000069460548FEF784F9002801D0FEF712F968
:10211000FEBD000000240140CC130020FEB50024C9
:102120001648009401941449029401608915816055
:10213000012505730475022606614FF46021446091
:10214000C161FEF7E7F908B1FEF7F4F80720009443
:10215000CDE9015069460948FEF75AF908B1FEF782
:10216000E9F8CDE9005669460448FEF751F9002820
:1021700001D0FEF7DFF8FEBD00280140FC1300206F
:10218000114808B5416941F00101416140690022EF
:1021900000F00100009011460B20FEF7BFFF0B205E
:1021A000FEF7AEFF002211460E20FEF7B7FF0E200D
:1021B000FEF7A6FF002211460F20FEF7AFFFBDE895
:1021C00008400F20FEF79CBF0010024070B586B09B
:1021D00000241C480094019402940394816941F006
:1021E00010018161816901F010010491816941F060
:1021F00020018161816901F020010491816941F030
:1022000004018161816901F004010491816941F057
:102210000801816180690C4E00F0080041F2381518
:102220000490002229463046FEF77CFD01200095EF
:10223000CDE901040220039069463046FEF782FC96
:1022400006B070BD00100240000C01400D4810B5F2
:102250000B4901600C49416000214FF480428160CC
:10226000C0E9031241618161C1610162FEF766FD4F
:10227000002803D0BDE81040FEF75CB810BD000098
:102280000054004070140020A08601000C4810B5D6
:102290000A4901604FF416414160002181600C221F
:1022A000C160C0E904128161C161FFF7E9FB002848
:1022B00003D0BDE81040FEF73DB810BD0038014026
:1022C000C4140020FEE7FEE7704770473EB54FF4A8
:1022D0007A748DE81C000A46014601230248FEF785
:1022E000F1FD40B23EBD000070140020FEF7B0BE0C
:1022F00030B593B028216846FDF71DFF14210AA8C8
:10230000FDF719FF002401210F9410940804CDE972
:10231000001011941294029402250491CDE9075003
:10232000800009906846FFF7CFF808B172B6FEE763
:102330000F20CDE90A054FF48060CDE90C40002163
:102340000AA80E94FEF7E4FF08B172B6FEE70FA8E4
:102350000F951194FEF766FF002801D072B6FEE7D4
:1023600013B030BD704710B5406A0021C185C184EB
:10237000FFF74FFA10BD01680C3151E8002F22F42D
:10238000907241E80023002BF5D10168143151E827
:10239000002F22F0010241E80023002BF5D1016B50
:1023A000012909D101680C3151E8002F22F01002F7
:1023B00041E80023002BF5D1202180F842100021B4
:1023C0000163704708B590F84210222901D002201D
:1023D00008BD82684FF480539A4201D1016921B14E
:1023E000816A9A421BD04AB10AE00268816A526847
:1023F000C2F308020A80816A891C08E0026972B18E
:102400000268526802F07F020A70816A491C816288
:10241000C18D491E0904090CC18503D01BE0026867
:102420005268F1E70168CA6822F02002CA600168B8
:10243000CA6822F48072CA6001684A6922F0010207
:102440004A61202180F8421000214163026B012A79
:1024500003D0FFF7C3FB002008BD016301680C3106
:1024600051E8002F22F0100241E80023002BF5D1A3
:1024700001680A68D20602D50A6849680091818D10
:10248000FFF7C6F9E7E7000070B504460068016988
:10249000E26821F44051114301612169A0680843B9
:1024A000616908432168CA6841F20C639A43024398
:1024B000CA6020684169A26921F4407111434161F9
:1024C0001E492068884202D1FEF7C8FF01E0FEF7EE
:1024D000B5FF00EBC00101EB0012606864218000D1
:1024E000B2FBF0F3B3FBF1F36FF018067343B2FBEA
:1024F000F0F5B2FBF0F605EB8305322303EB05158F
:10250000B5FBF1F5B6FBF1F605F0F00505EB0615A8
:10251000B2FBF0F6B2FBF0F0B0FBF1F06FF0180296
:10252000504306EB800003EB0010B0FBF1F0216894
:1025300000F00F002844886070BD000000380140A2
:1025400081628285C28500214164222180F8421087
:10255000016921B10168CA6842F48072CA600168E9
:102560004A6942F001024A610068C16841F02001F5
:10257000C160002070472DE9F041984617460E468D
:102580000446069D27E0681C25D02DB1FEF7D0FB40
:10259000A0EB0800A8421ED920680C3050E8001FAC
:1025A00021F4D07140E80012002AF5D120681430DF
:1025B00050E8001F21F0010140E80012002AF5D187
:1025C000202084F8410084F84200002084F8400074
:1025D0000320BDE8F0812068006836EA000004D0DE
:1025E0000020B842CFD00020F3E70120F9E7000037
:1025F0000148FFF70FB90000C4140020FEE70000F7
:102600000FB4054B10B503A9044A029800F028F84E
:1026100010BC5DF814FB0000B5270008180000206E
:102620000907090E002804DB00F1E02080F80014FF
:10263000704700F00F0000F1E02080F8141D704793
:1026400002E008C8121F08C1002AFAD1704770477B
:10265000002001E001C1121F002AFBD170470000D9
:102660002DE9FF4F89B09B460446002506E025284A
:102670000BD05A460B999047641C6D1C207800289B
:10268000F5D10DB02846BDE8F08F0027B8460122ED
:10269000474900E0074314F8013F203B02FA03F0EA
:1026A0000842F7D120782E2819D114F8010F47F0ED
:1026B00004072A280ED06FF02F022078A0F13001F5
:1026C00009290CD808EB880102EB410100EB010855
:1026D000641CF2E70A98641C50F8048B0A90207876
:1026E0000028CED0642808D0692806D075281ED0CE
:1026F0005A460B9990476D1C58E00A994FF00A0909
:1027000001C90A91002802DA40422D2102E0390570
:1027100004D52B218DF82010012103E0F90704D006
:102720002021F7E78A4608AE0DE00021FAE70A9972
:102730004FF00A0901C90A91F7E74946FDF706FD7E
:10274000303106F8011D0028F7D1ADEB060000F18D
:102750002009780701D44FF00108C84502DDA8EB35
:10276000090000E000208046002706E008A85A463D
:10277000C05D0B9990476D1C7F1C5745F6DB04E04C
:1027800030205A460B9990476D1CB8F10001A8F112
:102790000108F5DC05E016F8010B5A460B99904745
:1027A0006D1CB9F10001A9F10109F4DC641C65E7B5
:1027B0000928010013B54FF6FF730122694602484C
:1027C000FFF74CFA00981CBDC41400209EB01421E1
:1027D00017A8FDF7B0FC0127FEF742FCFFF788FDC4
:1027E000FFF7F4FCFFF7CCFCFFF716FCFFF74EFDFC
:1027F000FFF794FCFFF72AFDFE48FDF79DFD0A2236
:1028000017A9FC48FDF786FFD020FFF7DEFB012269
:10281000F949FA48FFF7D4F901221103F848FEF705
:1028200081FABDF85C001390BDF866001190BDF808
:102830006060BDF86250BDF86A000E90BDF86C0093
:102840000D90BDF86E000C90EB48BDF86440C01EC2
:10285000BDF868B0007801287ED1E748C01E4178F5
:1028600000297AD180780028FBD14FF0050897FB2A
:10287000F8F008FB107001281BD1DFF884930122C7
:1028800008214846FEF74EFA012210214846FEF77D
:1028900049FA012220214846FEF744FA00224FF46B
:1028A00080714846FEF73EFA0120FEF739F9139889
:1028B000069097FBF8F008FB107002281BD1DFF898
:1028C0004093002208214846FEF72CFA00221021EE
:1028D0004846FEF727FA012220214846FEF722FA51
:1028E00000224FF480714846FEF71CFA0120FEF7E3
:1028F00017F913980B9097FBF8F008FB107003285A
:102900001BD1DFF8FC92002208214846FEF70AFAA4
:10291000012210214846FEF705FA002220214846F0
:10292000FEF700FA00224FF480714846FEF7FAF9EC
:102930000120FEF7F5F813980A9097FBF8F008FBD2
:10294000107004281ED1DFF8B892012208214846F1
:10295000FEF7E8F9002201E03EE0C1E01021484620
:10296000FEF7E0F9002220214846FEF7DBF90022BD
:102970004FF480714846FEF7D5F90120FEF7D0F8F4
:102980001398099097FBF8F008FB107020BBDFF854
:102990007082002208214046FEF7C4F9002210216F
:1029A0004046FEF7BFF9002220214046FEF7BAF963
:1029B00000224FF480714046FEF7B4F90120FEF783
:1029C000AFF8139806990790CDE90001DDE90A21D7
:1029D0008CA0099BFFF714FE8748C01E01780029D0
:1029E0007ED141780129FBD180780028F8D18A492D
:1029F00007EA01001C90012829D1DFF804820102B6
:102A000001224046FEF78EF9012208214046FEF7DA
:102A100089F9012210214046FEF784F90122202184
:102A20004046FEF77FF90120FEF77AF80DF1300CF1
:102A300011989CE80007CDE9000BCDF808A0CDE97E
:102A4000039831462A46234674A0FFF7D9FD1C9807
:102A5000022828D1DFF8A881002208214046FEF78D
:102A600061F9012210214046FEF75CF90122202184
:102A70004046FEF757F9012211024046FEF752F98F
:102A80000120FEF74DF8DDE90C90DDF838C0DDF8E7
:102A900044A0CDE903098DE8001C31462A462346AF
:102AA00066A0FFF7ADFD1C9803282AD1DFF85081FE
:102AB000012208214046FEF735F900221021404648
:102AC000FEF730F9012220214046FEF72BF90122C2
:102AD00011024046FEF726F90120FEF721F800E03A
:102AE0003AE0DDE90C98DDF844A0DDF838C08DE867
:102AF000001C31462A46234658A0CDE90389FFF73A
:102B00007FFDB80728D1DFF8F88000220821404671
:102B1000FEF708F9002210214046FEF703F90122D2
:102B200020214046FEF7FEF8012211024046FEF742
:102B3000F9F80120FDF7F4FFDDE90C90DDF838C06D
:102B4000DDF844A0CDE903098DE8001C31462A4692
:102B500023464AA0FFF754FD2748C01E017840785D
:102B6000014345D12448C01E80780128F9D12A4963
:102B700007EA01001C90012828D1DFF88480012297
:102B800008214046FEF7CEF8012210214046FEF70C
:102B9000C9F8002220214046FEF7C4F801221102A4
:102BA0004046FEF7BFF80120FDF7BAFFDDE90C90C3
:102BB000DDF838C0DDF844A0CDE903098DE8001C3C
:102BC00031462A46234635A0FFF71AFD1C980228F5
:102BD0000FD1DFF82C80002208214046FEF7A2F832
:102BE000012210214046FEF79DF80022202165E0D9
:102BF000D6E07EE0CC13002003000020C4140020A7
:102C0000000C0140256420256420256420256420D3
:102C10002564200D0A0000000300008043313220AB
:102C20002564202564202564202564202564202532
:102C300064202564202564200D0A000043313520DE
:102C40002564202564202564202564202564202512
:102C500064202564202564200D0A000043313420BF
:102C600025642025642025642025642025642025F2
:102C700064202564202564200D0A000043313320A0
:102C800025642025642025642025642025642025D2
:102C900064202564202564200D0A00004338202587
:102CA0006420256420256420256420256420256473
:102CB000202564202564200D0A0000004046FEF710
:102CC00031F8012211024046FEF72CF80120FDF7F1
:102CD00027FFDDE90C90DDF838C0DDF844A0CDE930
:102CE00003098DE8001C31462A462346FDA0FFF764
:102CF00087FC1C98032828D1DFF8088401220821CA
:102D00004046FEF70FF8002210214046FEF70AF871
:102D1000002220214046FEF705F80122110240461C
:102D2000FEF700F80120FDF7FBFEDDE90C90DDF871
:102D300038C0DDF844A0CDE903098DE8001C314618
:102D40002A462346F0A0FFF75BFCB80728D1DFF83E
:102D5000B483002208214046FDF7E4FF0022102141
:102D60004046FDF7DFFF002220214046FDF7DAFF55
:102D7000012211024046FDF7D5FF0120FDF7D0FEEC
:102D8000DDE90C90DDF838C0DDF844A0CDE9030999
:102D90008DE8001C31462A462346E3A0FFF730FCAD
:102DA000E948007801287DD1E748417801297AD1A6
:102DB0008078002878D1092197FBF1F001FB107091
:102DC00001282AD1DFF83C83012208214046FDF783
:102DD000A9FF012210214046FDF7A4FF0122202176
:102DE0004046FDF79FFF00224FF480714046FDF7FB
:102DF00099FF0120FDF794FEDDE90C90DDF838C065
:102E0000DDF844A0CDE9030931462A462346AFF256
:102E1000F4108DE8001CFFF7F3FB4FF0090897FB57
:102E2000F8F008FB107002281BD1DFF8D8920022BE
:102E300008214846FDF776FF002210214846FDF79D
:102E400071FF012220214846FDF76CFF00224FF45C
:102E500080714846FDF766FF0120FDF761FE13987B
:102E60000B9097FBF8F008FB107003281FD1DFF8D8
:102E70009492002208214846FDF754FF01221021B8
:102E80004846FDF74FFF002220214846FDF74AFF44
:102E900000224FF480714846FDF744FF0120FDF702
:102EA0003FFE02E003E1BCE2FDE313980A9097FBCA
:102EB000F8F008FB107004281BD1DFF848920122BB
:102EC00008214846FDF72EFF002210214846FDF755
:102ED00029FF002220214846FDF724FF00224FF45D
:102EE00080714846FDF71EFF0120FDF719FE13987B
:102EF000099097FBF8F008FB107005281BD1DFF84C
:102F00000492002208214846FDF70CFF0022102100
:102F10004846FDF707FF002220214846FDF702FF43
:102F200000224FF480714846FDF7FCFE0120FDF7BA
:102F3000F7FD1398079097FBF8F108FB117006282E
:102F400023D1DFF8C091012211024846FDF7EAFEC5
:102F5000012208214846FDF7E5FE012210214846DE
:102F6000FDF7E0FE012220214846FDF7DBFE0120AF
:102F7000FDF7D6FD139906910798CDE90001DDE92B
:102F80000A216CA0099BFFF73BFB092097FBF0F19E
:102F900000FB1170072829D1DFF868810022082181
:102FA0004046FDF7BFFE012210214046FDF7BAFE64
:102FB000012220214046FDF7B5FE012211024046C4
:102FC000FDF7B0FE0120FDF7ABFDDDE90C90DDF86B
:102FD00038C0DDF844A0CDE9030931462A4623462E
:102FE000AFF2A8308DE8001CFFF70AFB092097FB21
:102FF000F0F100FB1170082829D1DFF808810122C7
:1030000008214046FDF78EFE002210214046FDF7C4
:1030100089FE012220214046FDF784FE0122110293
:103020004046FDF77FFE0120FDF77AFDDDE90C90BB
:10303000DDF838C0DDF844A0CDE9030931462A4661
:103040002346AFF2E8308DE8001CFFF7D9FA0920DB
:1030500097FBF0F100FB117048BBDFF8A88000225D
:1030600008214046FDF75EFE002210214046FDF794
:1030700059FE012220214046FDF754FE0122110293
:103080004046FDF74FFE0120FDF74AFDDDE90C90BB
:10309000DDF838C0DDF844A0CDE9030931462A4601
:1030A0002346AFF228408DE8001CFFF7A9FA264816
:1030B000007800287ED12448417801297BD180788E
:1030C0000128FBD1214807EA00011C91012961D1A7
:1030D000DFF83080C10D01224046FDF723FE0122BA
:1030E000082135E043313120256420256420256402
:1030F0002025642025642025642025642025642063
:103100000D0A0000000C01404331302025642025C9
:1031100064202564202564202564202564202564FE
:10312000202564200D0A00004339202564202564F1
:103130002025642025642025642025642025642022
:103140002564200D0A000000000000200700008018
:103150004046FDF7E7FD012210214046FDF7E2FD64
:10316000012220214046FDF7DDFD0120FDF7D8FCBE
:103170000DF1300C11989CE80007CDE9000B3146A9
:103180002A462346CDF808A0AFF2F040CDE90398D7
:10319000FFF736FA1C9802282DD1DFF8748600223A
:1031A00008214046FDF7BEFD012210214046FDF7F3
:1031B000B9FD01E031E1B3E1012220214046FDF7F4
:1031C000B1FD012211024046FDF7ACFD0120FDF7E3
:1031D000A7FCDDE90DA81198CDE9000BDDF830C0A2
:1031E00031462A462346CDF80880AFF2B050CDE9EB
:1031F00003ACFFF705FA1C9803282AD1DFF81086E4
:10320000012208214046FDF78DFD00221021404695
:10321000FDF788FD012220214046FDF783FD0122B4
:1032200011024046FDF77EFD0120FDF779FC0DF10E
:10323000300C11989CE80007CDE9000B31462A4676
:103240002346CDF808A0AFF2EC50CDE90398FFF784
:10325000D7F91C98042829D1DFF8B4850022082169
:103260004046FDF75FFD002210214046FDF75AFD64
:10327000012220214046FDF755FD01221102404662
:10328000FDF750FD0120FDF74BFCDDE90C90DDF86A
:1032900038C0DDF844A0CDE9030931462A4623466B
:1032A000AFF228608DE8001CFFF7AAF91C980528EA
:1032B0002AD1DFF85C85012208214046FDF732FD66
:1032C000012210214046FDF72DFD0022202140461D
:1032D000FDF728FD012211024046FDF723FD0120E4
:1032E000FDF71EFC0DF1300C11989CE80007CDE9AC
:1032F000000B31462A462346CDF808A0AFF2E46021
:10330000CDE90398FFF77CF91C9806282AD1DFF84D
:103310000085002208214046FDF704FD012210210E
:103320004046FDF7FFFC002220214046FDF7FAFC55
:10333000012211024046FDF7F5FC0120FDF7F0FBEC
:10334000DDE90DA81198CDE9000BDDF830C031465C
:103350002A462346CDF80880AFF27820CDE903ACA9
:10336000FFF74EF91C9807282AD1DFF8A484012220
:1033700008214046FDF7D6FC002210214046FDF70B
:10338000D1FC002220214046FDF7CCFC0122110295
:103390004046FDF7C7FC0120FDF7C2FB0DF1300CE4
:1033A00011989CE80007CDE9000B31462A462346D8
:1033B000CDF808A0AFF2B020CDE90398FFF720F9CF
:1033C00078072AD1DFF84884002208214046FDF71B
:1033D000A9FC002210214046FDF7A4FC0022202178
:1033E0004046FDF79FFC012211024046FDF79AFC82
:1033F0000120FDF795FB0DF1300C11989CE80007BA
:10340000CDE9000B31462A462346CDF808A0AFF29D
:10341000E820CDE90398FFF7F3F8FE48007801288B
:103420007ED1FC48407800287BD1FA48807801287A
:10343000F6D1092097FBF0F100FB117001282AD189
:10344000DFF8CC83012208214046FDF76BFC012206
:1034500010214046FDF766FC012220214046FDF781
:1034600061FC00224FF480714046FDF75BFC0120B7
:10347000FDF756FBDDE90C90DDF838C0DDF844A01F
:10348000CDE9030931462A462346AFF2F0708DE8B4
:10349000001CFFF7B5F84FF0090897FBF8F108FB9F
:1034A000117002281BD1DFF86893002208214846DA
:1034B000FDF738FC002210214846FDF733FC0122BD
:1034C00020214846FDF72EFC00224FF4807148462B
:1034D000FDF728FC0120FDF723FB13980B9097FBC9
:1034E000F8F108FB117003281ED1DFF824930022A5
:1034F00008214846FDF716FC012210214846FDF739
:1035000011FC002220214846FDF70CFC00224FF45C
:1035100080714846FDF706FC0120FDF701FB01E044
:103520007AE108E113980A9097FBF8F108FB117013
:1035300004281BD1DFF8D892012208214846FDF764
:10354000F1FB002210214846FDF7ECFB0022202170
:103550004846FDF7E7FB00224FF480714846FDF72F
:10356000E1FB0120FDF7DCFA1398099097FBF8F1D5
:1035700008FB117005281BD1DFF894920022082166
:103580004846FDF7CFFB002210214846FDF7CAFB55
:10359000002220214846FDF7C5FB00224FF4807130
:1035A0004846FDF7BFFB0120FDF7BAFA13980790D4
:1035B00097FBF8F108FB1170062824D1DFF8509230
:1035C000012208214846FDF7ADFB012210214846A3
:1035D000FDF7A8FB002220214846FDF7A3FB0122AE
:1035E00011024846FDF79EFB0120FDF799FA139959
:1035F00006910798CDE90001AFF2C840DDE90A2144
:10360000099BFEF7FDFF092097FBF0F100FB11700D
:10361000072829D1DFF8F881002208214046FDF76C
:1036200081FB012210214046FDF77CFB0022202176
:103630004046FDF777FB012211024046FDF772FB81
:103640000120FDF76DFADDE90C90DDF838C0DDF8FA
:1036500044A0CDE9030931462A462346AFF27C5007
:103660008DE8001CFEF7CCFF092097FBF0F100FB72
:10367000117008282BD1DFF89881012208214046DB
:10368000FDF750FB002210214046FDF74BFB0022C6
:1036900020214046FDF746FB012211024046FDF77E
:1036A00041FB012000E04AE0FDF73AFADDE90C9029
:1036B000DDF838C0DDF844A0CDE9030931462A46DB
:1036C0002346AFF2BC508DE8001CFEF799FF09209D
:1036D00097FBF0F100FB117048BBDFF8348100224A
:1036E00008214046FDF71EFB002210214046FDF751
:1036F00019FB002220214046FDF714FB0122110294
:103700004046FDF70FFB0120FDF70AFADDE90C90BA
:10371000DDF838C0DDF844A0CDE9030931462A467A
:103720002346AFF2FC508DE8001CFEF769FF3948D4
:103730000078012870D1374840780128FAD13548FF
:1037400080780128F6D10D2097FBF0F100FB117075
:1037500001282AD1DFF8B880012208214046FDF770
:10376000E1FA012210214046FDF7DCFA0122202176
:103770004046FDF7D7FA00224FF480714046FDF72E
:10378000D1FA0120FDF7CCF9DDE90C90DDF838C065
:10379000DDF844A0CDE9030931462A462346AFF6B9
:1037A00084308DE8001CFEF72BFF4FF00D0897FBCF
:1037B000F8F108FB117002281BD1DFF854900022A9
:1037C00008214846FDF7AEFA002210214846FDF7D1
:1037D000A9FA012220214846FDF7A4FA00224FF45D
:1037E00080714846FDF79EFA0120FDF799F913987C
:1037F0000B9097FBF8F108FB1170032821D1DFF83B
:103800001090002208214846FDF78CFA012204E0BE
:10381000000C014000000020D7E110214846FDF7D0
:1038200081FA002220214846FDF77CFA00224FF45D
:1038300080714846FDF776FA0120FDF771F913987B
:103840000A9097FBF8F108FB117004281BD1DFF8F0
:103850008093012208214846FDF764FA00221021D6
:103860004846FDF75FFA002220214846FDF75AFA44
:1038700000224FF480714846FDF754FA0120FDF70D
:103880004FF91398099097FBF8F108FB1170052880
:103890001BD1DFF83C93002208214846FDF742FA8D
:1038A000002210214846FDF73DFA0022202148461B
:1038B000FDF738FA00224FF480714846FDF732FADE
:1038C0000120FDF72DF91398079097FBF8F108FBFD
:1038D0001170062824D1DFF8F89201220821484609
:1038E000FDF720FA012210214846FDF71BFA0022BD
:1038F00020214846FDF716FA012211024846FDF73D
:1039000011FA0120FDF70CF9139807990690CDE9FB
:103910000010DDE90A210297AEA0099BFEF770FEB8
:103920000D2097FBF0F100FB1170072829D1DFF87B
:10393000A082002208214046FDF7F4F9012210215F
:103940004046FDF7EFF9002220214046FDF7EAF955
:10395000012211024046FDF7E5F90120FDF7E0F8EC
:10396000DDE90C90DDF838C0DDF844A0CDE90309AD
:1039700031462A462346AFF694008DE8001CFEF738
:103980003FFE0D2097FBF0F100FB1170082829D1B4
:10399000DFF83C82012208214046FDF7C3F90022EE
:1039A00010214046FDF7BEF9002220214046FDF7D8
:1039B000B9F9012211024046FDF7B4F90120FDF7E3
:1039C000AFF8DDE90C90DDF838C0DDF844A0CDE9B2
:1039D000030931462A462346AFF6D4008DE8001C81
:1039E000FEF70EFE0D2097FBF0F100FB1170092889
:1039F00029D1DFF8DC81002208214046FDF792F949
:103A0000002210214046FDF78DF90022202140467A
:103A1000FDF788F9012211024046FDF783F90120E4
:103A2000FDF77EF8DDE90C90DDF838C0DDF844A044
:103A3000CDE9030931462A462346AFF614108DE836
:103A4000001CFEF7DDFD0D2097FBF0F100FB11706F
:103A50000A2829D1DFF87881012211024046FDF7BA
:103A600061F9012208214046FDF75CF9012210218D
:103A70004046FDF757F9012220214046FDF752F953
:103A80000920FDF74DF8DDE90C90DDF838C0DDF8D0
:103A900044A0CDE9030931462A462346AFF6046027
:103AA0008DE8001CFEF7ACFD0D2097FBF0F100FB4C
:103AB00011700B2829D1DFF8188100220821404617
:103AC000FDF730F9012210214046FDF72BF90122C4
:103AD00020214046FDF726F9012211024046FDF75C
:103AE00021F90120FDF71CF8DDE90C90DDF838C064
:103AF000DDF844A0CDE9030931462A462346AFF656
:103B0000C4608DE8001CFEF77BFD0D2097FBF0F1F3
:103B100000FB11700C2829D1DFF8B48001220821A4
:103B20004046FDF7FFF8002210214046FDF7FAF865
:103B3000012220214046FDF7F5F8012211024046FE
:103B4000FDF7F0F80120FCF7EBFFDDE90C90DDF864
:103B500038C0DDF844A0CDE9030931462A462346A2
:103B6000AFF608708DE8001CFEF74AFD0D2097FBAC
:103B7000F0F100FB117040BBDFF8548000220821F7
:103B80004046FDF7CFF8002210214046FDF7CAF865
:103B9000012220214046FDF7C5F8012211024046CE
:103BA000FDF7C0F80120FCF7BBFF31462346DDE9F5
:103BB0000C642A46AFF63C70119DDDF838C08DE8E4
:103BC0002018CDE90346FEF71BFD7F1CFEF724BE3F
:103BD000000C0140256420256420256420256420F4
:103BE0002564202564200D0A000000000102020364
:103BF0000405060708090A0B0C0D0E0F1010010230
:103C000002030405060708090A0B0C0D0E0F10101D
:103C1000000000000000000001020304060708097C
:103C20000000000001020304483C000800000020DE
:103C30001C00000040260008643C00081C00002016
:103C40007C19000050260008000000000000000061
:103C50000100000010000000000000000024F4003B
:043C60000000000060
:04000005080000ED02
:00000001FF
