:020000040800F2
:10000000F019002001010008A73100086D28000840
:10001000A5310008050C0008BD34000800000000F0
:10002000000000000000000000000000AB310008EC
:10003000570C000800000000A9310008AD3100088D
:100040001B0100081B0100081B0100081B01000820
:100050001B0100081B0100081B0100081B01000810
:100060001B0100081B0100081B010008090C000807
:100070001B0100081B010008150C0008210C0008DA
:100080001B0100081B0100081B0100081B010008E0
:100090001B0100081B0100081B0100081B010008D0
:1000A0001B0100081B0100081B0100081B010008C0
:1000B0001B0100081B0100081B0100081B010008B0
:1000C0001B0100081B0100081B0100081B010008A0
:1000D0001B010008B13400081B0100081B010008C7
:1000E0001B0100081B0100081B010008DFF80CD0F1
:1000F00000F0B2FC0048004799540008F0190020B5
:100100000648804706480047FEE7FEE7FEE7FEE7B1
:10011000FEE7FEE7FEE7FEE7FEE7FEE72532000822
:10012000ED0000082DE9F0410024061B254671F181
:10013000000605DA01240027D0EB070067EB010178
:10014000161E73F1000605DA0027D2EB070201251F
:1001500067EB030300F00CFA86460E4617469C46F2
:10016000AC4204D00025D0EB050E65EB010624B1AE
:100170000020D2EB000760EB030C704631463A4694
:100180006346BDE8F081202A04DB203A21FA02F020
:100190000021704721FA02F3D040C2F120029140C1
:1001A000084319467047D2B201E000F8012B491EFE
:1001B000FBD270470022F6E710B513460A46044604
:1001C0001946FFF7F0FF204610BD30B50446002069
:1001D000034600E05B1C934203D2E05CCD5C401B15
:1001E000F8D030BDF0B480EA0102D40F4200B2EB87
:1001F000410F02D20246084611464A0042D0C30DC2
:10020000DDB2C1F3C752AD1A202D35DAC1F31601A4
:1002100041F4000204B15242C5F1200602FA06F18F
:100220002A411044B3EBD05F23D0C4B1012DA0EB21
:10023000C35009DCF0BC4FF0004202EAC352DBB20B
:1002400000F5000000F0CEB9400000F1807000EB36
:10025000C350A0F1807040EAD170490009E049081C
:1002600041EAC071A0EBC35000F50000400800EB6C
:10027000C350F0BC00F0ADB96142012202EB410174
:10028000001BF6E7F0BC704781F00041AAE780F060
:100290000040A7E780EA010210B502F000434000E9
:1002A00022D04A001FD0010E01EB1261C0F35600AC
:1002B000C2F3560240F4000042F40002A0FB022008
:1002C00000047F39140400D0401C50EA124001D4CD
:1002D0004000491EC2B20C0604EBD010401C40087E
:1002E000802A02D003E0002010BD20F00100002988
:1002F00000DA0020184310BD30B480EA010202F099
:10030000004530F0004221F0004013D090B1C30D01
:10031000D40DC2F31601C0F31600E41A41F4000133
:1003200040F400027D34914201D3641C00E0490096
:10033000002C02DA30BC002070474FF4000000238C
:10034000914201D3891A034340084FEA4101F7D192
:1003500051B1914202D14FF0004105E002D24FF07D
:10036000010101E06FF0010103EBC450284430BCEF
:1003700000F02FB9420005D0C0F3C752524291425B
:1003800001DC0020704700EBC15070472DE9FE4FA3
:1003900081EA030404F0004421F0004100944FF08E
:1003A000000B23F0004350EA01045ED052EA03043C
:1003B0005BD0C3F30A54C1F30A552C44A4F2F334BE
:1003C0000194A0FB0254C1F3130141F48011C3F363
:1003D000130343F4801301FB024400FB034E840A21
:1003E000970A44EA815447EA8357A4FB07680295B9
:1003F0008D0A05FB07854FEA932C04FB0C54270557
:10040000029D4FEA065847EA1637B5EB08056EEB32
:10041000070C870E920E47EA811742EA8312A7FB68
:100420000201B6EB0B0164EB00042B0D43EA0C3325
:100430005E1844EB1C50DA465146E7FB0201C5F357
:1004400013044FEA0B3343EA14534FEA0432019C7E
:1004500043EA0603A4F10C040294009CCDE900B425
:1004600000F0FDF803B0BDE8F08F00200146F9E789
:10047000C10F80EAE0700844CA079623002100F00B
:10048000B1B896230022114600F0ACB800F000424B
:1004900020F00040C10DC0F3160040F400007F2999
:1004A00001DA00207047962903DCC1F19601C840AB
:1004B00001E096398840002AF4D04042704720F08D
:1004C0000040C10DC0F3160040F400007F2901DA9E
:1004D00000207047962903DCC1F19601C84070479F
:1004E00096398840704700F0004230F000400AD052
:1004F000C10D01F56071C0F3160042EA0151C20856
:1005000040071143704700200146704701F0004347
:1005100030B421F0004150EA010206D00A0DA2F5E4
:100520006072C1F31301002A02DC30BC0020704766
:10053000440F44EAC104C100E01830BC00EBC250D3
:1005400000F047B830B50B460146002020220124B8
:1005500009E021FA02F59D4205D303FA02F5491B91
:1005600004FA02F52844151EA2F10102F1DC30BDA7
:100570002DE9F05F0546002092469B4688460646D8
:10058000814640241BE02846414647462246FFF765
:10059000FAFD53465A46C01A914110D311461846E7
:1005A000224600F06BFA2D1A67EB01084F462246EF
:1005B0000120002100F062FA17EB00094E41201ED5
:1005C000A4F10104DFDC484631462A464346BDE833
:1005D000F09F0029A8BF7047401C490008BF20F0C9
:1005E0000100704710B4B0FA80FC00FA0CF050EA39
:1005F000010404BF10BC704749B1CCF1200421FABA
:1006000004F411FA0CF118BF012121430843A3EBB4
:100610000C01CB1D4FEA00614FEA102042BF0020C1
:1006200010BC704700EBC35010440029A4BF10BC9D
:100630007047401C490008BF20F0010010BC704703
:1006400010B5141E73F1000408DA401C41F10001DA
:1006500092185B411A4301D120F0010010BD2DE931
:10066000F04D92469B4611B1B1FA81F202E0B0FA28
:1006700080F22032904600F001FA04460F4640EA2C
:100680000A0041EA0B0153465A46084313D011466B
:1006900053EA010019D0C8F140025046FFF773FD3C
:1006A00005460E4650465946424600F0E7F90843D3
:1006B00005D0012004E020463946BDE8F08D002039
:1006C000054346EAE0762C4337430A986305E40A7B
:1006D000A0EB08000022FD0A44EA47540A3002D584
:1006E00000200146E9E7010510196941DDE90845E7
:1006F00000196941BDE8F04DA2E72DE9FE4F8046A3
:1007000081EA0300C00F0C46009021F0004123F065
:100710000045B8EB0200A94105D24046214690466B
:100720001C460B46024623F00040104347D0270DDD
:10073000C7F30A00C3F30A510290401A01904028FF
:100740006BDAC3F3130040F4801B0098924620B18B
:100750000023D2EB030A63EB0B0B01985946C0F15F
:100760004002504600F08AF906460D46504659466A
:10077000019A00F092F910EB08006141002487EA29
:10078000115284EAE7731A4340D0009A62B3019A87
:10079000012A4FEA075215DC001B61EB02014FF002
:1007A000004202EA0752CDE90042001C41F58011E7
:1007B00032462B46FFF753FF03B0BDE8F08F4046AB
:1007C0002146F9E7001B61EB0201001C41F5801393
:1007D00000185B412018A2F5001747EB030140EA1F
:1007E000D570B6196D4111E06D084FEA360645EA3D
:1007F000C0754FEA0752001B61EB0201001C41F576
:10080000801149084FEA30000019514132462B4609
:1008100003B0BDE8F04FFFF713BF0098012240007E
:100820000023D0EB020263EBE073009821464FEA0D
:10083000E074B8EB000061EB0401E9E783F00043EA
:100840005BE781F0004158E72DE9F04D81EA0304B0
:1008500004F0004B21F0004514464FF0000A23F04D
:10086000004150EA050220D054EA01021DD0C5F330
:100870000A570246C5F31303C1F31300C1F30A5626
:1008800040F4801543F48013A7EB0608101BD646EE
:1008900008F2FD3873EB050002D308F1010801E00E
:1008A00092185B41B8F1000F03DA00200146BDE861
:1008B000F08D00204FF48011064684460EE0171B91
:1008C00073EB050705D3121B63EB050306434CEAE4
:1008D000010C49084FEA300092185B4150EA0107C9
:1008E000EDD152EA030012D082EA040083EA050146
:1008F000084305D0101BAB4106D20122002306E0BD
:1009000000224FF0004302E06FF0010253101AEB97
:1009100006004CEB085110EB0A0041EB0B01BDE85F
:10092000F04DFFF78DBE70B521F0004303430CD0AE
:10093000C1F30A550024D5EB040564EB0403D61774
:10094000AD1AB34102DB0020014670BD201841EB17
:10095000025170BD2DE9F04D00231A461B1A8A4141
:1009600003DB00200146BDE8F08DC1F30A52C1F35C
:10097000130141F480154FF0000BD10702D100188C
:100980006D41521E0027044640F2FF11384601EB2C
:10099000620A3E468046024600204FF48011FFF76F
:1009A000F2FBC2197141BB1846EB0100B4EB030C1A
:1009B00075EB000C04D3E41A65EB000517460E46F0
:1009C000241908F101006D4180463428E3DDF9194E
:1009D00046EB0600091BA84103D24FF0FF32134635
:1009E00001E0002213461BEB070046EB0A51BDE86D
:1009F000F04DFFF725BEC1F30A52C1F3130140F2D7
:100A0000FF3341F480119A4202DA00200146704718
:100A100040F233439A42A2F2334202DC5242FFF7E1
:100A2000B2BB00F02BB8000030B5041E71F1000419
:100A300004DB4FF00044404264EB0101141E73F1EB
:100A4000000405DB1C464FF00043524263EB0403F5
:100A5000994208BF904230BD064C074D06E0E06861
:100A600040F0010394E8070098471034AC42F6D3F5
:100A7000FFF740FB7085000890850008202A04DB02
:100A8000203A00FA02F1002070479140C2F12003A1
:100A900020FA03F3194390407047202A06DBCB1756
:100AA000203A41FA02F043EAE07306E041FA02F329
:100AB000D040C2F12002914008431946704700001F
:100AC00070B5044600688168C943C90717D18168B9
:100AD00021F00101816000F0BDFD05460AE000BF84
:100AE00000F0B8FD401B022804D920688068C0438C
:100AF000C00706D020688068C043C007F0D000203F
:100B000070BDA06A40F01000A062E06A40F00100F1
:100B1000E062012070BD10B50146406A826A12F0A1
:100B2000500F05D0006A026BBDE810400846104720
:100B3000816A41F40071816201688968C1F34241B0
:100B400007290CD1017B51B9816A21F4807181623E
:100B5000816AC90403D4816A41F00101816200F015
:100B600067F910BD10B5406A816A41F040018162A9
:100B7000C16A41F00401C16200F05CF910BD10B51A
:100B8000406A00F056F910BDF8B5002604460096FC
:100B900000688168C943C9072DD0816841F001010F
:100BA0008160164816490068B0FBF1F000E0401E75
:100BB00000900028FBD100F04DFD054616E000BF77
:100BC00000F048FD401B022810D920688068C0430F
:100BD000C0070BD0A06A40F01000A062E06A40F0AD
:100BE0000100E06284F824600120F8BD206880687C
:100BF000C043C007E4D10020F8BD00002000002061
:100C000040420F00FEE70000014800F00BBB00006F
:100C100074140020014800F005BB00009815002066
:100C2000014800F0FFBA00005415002030B590F8DC
:100C300040500124AC40C56B6C600468636043683D
:100C4000102B036803D099600068C26030BD9A60C1
:100C50000068C16030BD704772B6FEE7F8B5002588
:100C60000446009590F8240001280BD0012084F858
:100C700024002046FFF724FF2046FFF785FF0600EB
:100C800002D050E00220F8BDA06A20F4885040F065
:100C90000200A062022001F02DF825490968B1FB8D
:100CA000F0F0400000E0401E00900028FBD12068DA
:100CB000816841F00801816000F0CCFC074608E043
:100CC00000F0C8FCC01B0A2803D920688068000710
:100CD00015D4206880680007F2D42068816841F04C
:100CE0000401816000F0B6FC074612E000F0B2FC9F
:100CF000C01B0A280DD920688068400709D5A06A62
:100D000020F0020040F01000A06284F8245001207E
:100D1000F8BD206880684007E8D4A06A20F002008F
:100D200040F00100A06284F824503046F8BD000075
:100D300020000020F8B50024009490F824202546D7
:100D4000012A12D0012280F824204A681F23072A92
:100D50000DD20668776B521E02EB820293409F43CE
:100D60000B6893401F43776319E00220F8BD0668C3
:100D70000D2A0AD2376BD21F02EB820293409F43A7
:100D80000B6893401F43376309E0F76A0D3A02EBA3
:100D9000820293409F430B6893401F43F7620A68A7
:100DA000072306680A2A0AD3F7680A3A02EB4202C6
:100DB00093409F438B6893401F43F76008E0376977
:100DC00002EB420293409F438B6893401F4337617D
:100DD0000A68102A01D0112A20D1124B02689A42C7
:100DE00017D193681B0219D4936843F400039360EE
:100DF0000968102912D10C490C4A0968B1FBF2F1BB
:100E000001EB8101490000E0491E00910029FBD15E
:100E100004E0816A41F020018162012480F82450BD
:100E20002046F8BD002401402000002040420F0071
:100E300070477047704700002DE9F0414FF0000700
:100E400004003D467ED0A06A002628B9E66284F8F8
:100E50002460204600F07EF82046FFF731FEA16AAC
:100E6000C90600D420B1A06A40F01000A06269E079
:100E7000A16A21F4885141F00201A1626268E1692E
:100E8000237B0A4347EA43010A43A1684FF4807772
:100E9000B94209D0012907D05FF0000194F814C0CD
:100EA000BCF1010F02D00AE03946F7E7F3B1A36ABB
:100EB00043F02003A362E36A43F00103E362236883
:100EC000D3F804C02CF4694C4CEA010CC3F804C0FC
:100ED00021688B68DFF870C003EA0C0313438B6052
:100EE000A168B9420BD0012909D00CE0DFF85CC041
:100EF000A3690CEB43330B4343F40061DFE7218A22
:100F00000D05A5F580152168CB6A23F470032B43EA
:100F1000CB62216889680E4B1940914208D1E66284
:100F2000A16A21F0020141F00101A162BDE8F08156
:100F3000A06A20F0020040F01000A062E06A40F0D9
:100F40000100E0620120F1E7FDF7E1FF00E0FFFFB3
:100F5000FE0E1FFF70B586B0002500950195029525
:100F6000039506462D4B02682D4903242D489A42CD
:100F70003BD18A6942F400728A618A6902F4007284
:100F800004928A6942F004028A618A6902F00402CA
:100F900004928A6942F008028A61896901F00801B5
:100FA0000491FF21CDE90014694600F05DFA009438
:100FB00069461D48019400F057FA1D4C1B48C4E9CE
:100FC00000058020C4E9025040002061800060617B
:100FD0002020C4E90605204600F0CEF908B1FFF74D
:100FE0003BFE3462666206B070BD124B9A42FAD183
:100FF0008A6942F480628A618A6902F4806204929A
:101000008A6942F004028A618969009401F004014E
:1010100004910194694600F027FAE4E700240140B6
:101020000010024000080140000C0140080002408E
:1010300074140020002801402DE9F0478946044639
:101040003B4900683B4F0E1D9046884201D0B84294
:1010500007D1306810F4702F03D001252846BDE871
:10106000F08794F8240001280CD0012084F8240093
:101070002046FFF789FD05004FF0000004D084F8FA
:101080002400EBE70220EAE7A16A40F601629143FF
:1010900041F48071A1622168B94218D1326812F41A
:1010A000702F14D0A16A41F48011A1623168490502
:1010B00005D5A16A21F4005141F48051A162A16AD1
:1010C000C9040AD5E16A21F00601E16206E0A26ADC
:1010D00022F48012A2624968E9E7E06284F8240001
:1010E000216A15488862216A1448C862216A144836
:1010F000086321686FF0020008602068816841F48D
:1011000080718160216843464A464C31206A00F074
:1011100061F920688168C1F342410729816803D0E1
:1011200041F48011816099E741F4A001FAE70000E1
:101130000024014000280140170B00087F0B000825
:10114000650B000810B590F821100022022905D087
:101150000421816380F82020012010BD01680B6804
:1011600023F00E030B6001680B6823F001030B6092
:1011700090F84030C46B012101FA03F3636080F8FA
:10118000211080F82020104610BD000010B590F806
:1011900021100024022903D00421816301243DE0B1
:1011A00001680A6822F00E020A6001680A6822F0EB
:1011B00001020A601A4A0168914201D1012121E02D
:1011C000174A1432914201D110211BE0144A2832EF
:1011D000914201D1891515E0114A3C32914201D169
:1011E00089140FE00E4A5032914202D14FF48031FF
:1011F00008E00B4A6432914202D14FF4801101E0C1
:101200004FF08071064A083A5160012180F82110A0
:10121000002180F82010416B01B18847204610BDA5
:10122000080002402DE9F05FC16B0C6801680B6893
:10123000D0F840C0042202FA0CF2494DDFF824A194
:10124000494E4A4FDFF828B1DFF828E122422CD07E
:101250005A072AD50A68920603D40A6822F00402C3
:101260000A600168A94201D1042219E0514501D167
:10127000402215E0B14202D14FF4806210E0B94241
:1012800002D14FF480420BE0594502D14FF4802245
:1012900006E0714502D14FF4800201E04FF0806218
:1012A0002F4908394A60C16A3BE04FF0020808FA4A
:1012B0000CF818EA040F4FF000094FF0010235D086
:1012C0005FEA837832D50B689B0605D40B6823F060
:1012D0000A030B6080F821200168A94201D1022293
:1012E00019E0514501D1202215E0B14202D14FF45D
:1012F000007210E0B94202D14FF400520BE05945A0
:1013000002D14FF4003206E0714502D14FF40012D1
:1013100001E04FF00072124908394A6080F82090CD
:10132000816A00291AD0BDE8F05F0847082505FA50
:101330000CF5254212D01B0710D50B6823F00E03C5
:101340000B6090F84010C36B02FA01F159608263A0
:1013500080F8212080F82090016BE2E7BDE8F09F43
:10136000080002401C0002403000024044000240DD
:10137000580002406C00024030B528B308C8134939
:1013800014221944B1FBF2F18900C1631049816351
:10139000022141771A6843F6F0718A43D0E90014BC
:1013A0002143D0E902452C43214304692143446988
:1013B00021438469214311431960002141630122C3
:1013C00042770177084630BD012030BDF8FFFDBFF0
:1013D0000000024070B5044690F820000025012866
:1013E0000CD0012084F8200094F821600020012E08
:1013F00006D084F820000225284670BD022070BD6A
:10140000022684F82160A0632068066826F00106A1
:1014100006602046FFF70AFCE06A002820680168A1
:1014200002D041F00E0106E021F0040101602068C5
:10143000016841F00A0101602068016841F0010182
:101440000160D9E770B5044600F004F90546601C58
:1014500002D004480078044400F0FCF8401BA0428D
:10146000FAD370BD140000202DE9F84FDFF8B891D1
:101470000024A9F1040B23460F2709F1040AABF15C
:10148000040EC9E00125A5402A40AA427DD1674E3D
:10149000D1F804C0ACEB0608B44532D014DCBCF182
:1014A000030F3AD009DCBCF1000F2AD0BCF1010FC8
:1014B0001CD0BCF1020F31D11DE0BCF1110F17D0CF
:1014C000BCF1120F2AD119E0B8F5881F19D006DC3B
:1014D000B8F5803F15D0B8F5801F1FD111E0B8F5E1
:1014E000001F0ED0B8F5041F18D10AE0CB6815E034
:1014F000CB681B1D12E0CB6808330FE0CB680C33C0
:101500000CE08B682BB1012B4FF0080303D0456131
:1015100004E0042302E0056100E00023FF2A01D873
:10152000064601E000F104064FEA840501D9A5F161
:101530002005D6F8008007FA05FC28EA0C0803FA13
:1015400005F548EA0508C6F800804D68ED0062D54B
:10155000374DAE6946F00106AE61AD6924F0030671
:1015600005F001050095334D06EB050CDCF808503D
:10157000A607360F07FA06F825EA0805DFF8B8804F
:10158000404503D14FF0000817E044E0DFF8AC809D
:10159000404502D14FF001080FE0DFF8A48040453C
:1015A00002D14FF0020808E0DFF89880404502D1F0
:1015B0004FF0030801E04FF0040808FA06F848EA83
:1015C0000508CCF808804D68D9F80060ED024D465A
:1015D00001D5164300E096432E604D68DAF80060AE
:1015E000AD02554601D5164300E096432E604D6886
:1015F000DBF80060AD035D4601D5164300E096437D
:101600002E604D68DEF80060ED03754601D5164387
:1016100000E096432E60641C0D682A46E5407FF486
:1016200031AFBDE8F88F0000080401400000111040
:10163000001002400000014000080140000C014081
:1016400000100140001401400AB101617047090413
:10165000FBE700000148806870470000140000208C
:1016600070B5040025D094F83D00002520B984F819
:101670003C50204600F078FA242084F83D00206891
:10168000016821F0010101602068016841F4004116
:1016900001602068016821F40041016000F088FCCD
:1016A0004D4A6168914201D84C4900E04C4988425A
:1016B00001D2012070BD4B492368B0FBF1F15E6897
:1016C00026F03F060E435E606368934206D94FF4EE
:1016D000967359434FF47A73B1FBF3F12368491CB5
:1016E0001E6A26F03F06314319626168914210D8A4
:1016F0004900401EB0FBF1F2521CC2F30B02042A57
:1017000001D2042022E0B0FBF1F0401CC0F30B003A
:101710001CE0A268F2B301EBC10303EB0116431E08
:10172000B3FBF6F35B1C43F480431B0549D092B333
:1017300001EBC10202EB0111401EB0FBF1F0401CB5
:10174000C0F30B0040F4804040F400402168CA69B7
:101750004CF6FF739A431043C861D4E90710014364
:101760002068026822F0C00211430160D4E903013D
:1017700001432068826848F2FF339A431143816035
:10178000D4E9050108432168CA6822F0FF0210432A
:10179000C86001E00EE016E02068016841F0010138
:1017A00001602564202084F83D00256384F83E50C4
:1017B000002070BD01EB4106431EB3FBF6F35B1C3A
:1017C000B3E70120C2E701EB4101401EB0FBF1F09D
:1017D000401CC0F30B00B7E7A086010080841E0008
:1017E00000093D0040420F002DE9FF4F83B0002566
:1017F000DDE910799A4693460446DDF84880009565
:10180000FFF728FF064694F83D0020287CD11923D5
:10181000012285492046009601F03EF90028F5D1C5
:1018200094F83C0001286FD0012084F83C00206827
:101830000168C90703D1016841F001010160206816
:10184000016821F400610160222084F83D004020FD
:1018500084F83E0025646762A4F82A90608D208594
:101860007248E062CDE9008653465A462046049904
:1018700001F014F800287DD1208DDFF8B4912027E5
:1018800068B1012814D00228206801681ED041F4F4
:10189000806101602068416980690090B6E020683D
:1018A000416981690091016841F400710160ADE016
:1018B0002068016821F48061016072B62068416986
:1018C00081690091016841F400710AE041F400610E
:1018D000016072B62068416981690091016821F454
:1018E0008061016062B691E0032868D801280CD0BD
:1018F000022843464FF000024946204600960FD08A
:1019000001F0CAF8B0BB10E08BE0324641462046F9
:1019100001F068F970BB20680069616A08706CE0CA
:1019200001F0BAF830BB72B634E02068016821F4E7
:101930008061016072B620680069616A0870606A3F
:10194000401C6062208D401E2085608D401E608599
:10195000384846F2A8110068B0FBF1F0C0EBC000B7
:1019600000EB80000090401E009008D02068406985
:10197000C04300E029E040070CD50098F3E744F8A5
:10198000305F6773A573206940F02000206162B664
:1019900025731AE02068016841F400710160206835
:1019A0000069616A0870606A401C6062218D491E8E
:1019B0002185618D491E618562B621681BE0324632
:1019C0004146204601F00EF918B1012007B0BDE8EC
:1019D000F08F20680069616A0870606A401C60626C
:1019E000218D491E2185618D491E618521684A69C5
:1019F000D24352070AD409690170606A401C6062D0
:101A0000208D401E2085608D401E6085208D002821
:101A10007FF46AAF84F83D7084F83E5084F83C50FF
:101A2000D4E70220D2E70000020010000000FFFF10
:101A300004000100200000202DE9FF4F83B09A46EA
:101A4000DDE9119793460446DDF84080FFF702FE7A
:101A5000054694F83D0020287FD1192301224049F2
:101A60002046009501F018F8002876D194F83C0043
:101A7000012872D0012084F83C0020680168C90761
:101A800003D1016841F0010101602068016821F47F
:101A900000610160212084F83D00402084F83E0070
:101AA00000262664C4F82480A4F82A90608D20853E
:101AB0002C48E062CDE9007553465A462046049909
:101AC00000F06AFF70B930E02A463946204601F03E
:101AD000C1F858B1206C042804D12068016841F491
:101AE00000710160012007B0BDE8F08F606A2168D5
:101AF00000780861606A401C6062218D491E89B2CD
:101B00002185628D521E628522685369DB435B0723
:101B10000BD469B100781061606A401C6062208D4E
:101B2000401E2085608D401E6085208D0028CBD111
:101B30002A463946204600F083FF0028CAD154F8CF
:101B40003D0B016841F400710160202004F81E097A
:101B5000E67766770020C6E7FFE70220C3E70000CC
:101B6000020010000000FFFF10B586B000210091B8
:101B700001910291039100680F4988421AD10F4CDC
:101B8000A06940F00800A061A069694600F0080063
:101B90000490C02000901220019003200390084878
:101BA000FFF762FCE06940F40010E061E06900F4D6
:101BB0000010049006B010BD005400400010024018
:101BC000000C01400248816802781144816070472E
:101BD00014000020074810B5016841F010010160B1
:101BE000032000F075F80F2000F006F800F024F84C
:101BF000002010BD0020024070B50D4D04464FF48A
:101C00007A712878B1FBF0F00A490968B1FBF0F06D
:101C100000F0A4FB48B9102C07D200222146501E28
:101C200000F036F800206C6070BD012070BD00002F
:101C300014000020200000200C4808B5816941F004
:101C400001018161816901F001010091C16941F0E7
:101C50008051C161C06900F0805000900448416823
:101C600021F0E06141F00071416008BD00100240C8
:101C700000000140002809DB00F01F020121914013
:101C80004009800000F1E020C0F80011704700001A
:101C9000F0B40E4B1B680C46C3F30223C3F10705D7
:101CA000042D00D90425191D072901D2002300E0C5
:101CB000DB1E012606FA05F1491E214099409E408F
:101CC000761E16403143F0BC01F01EBC0CED00E066
:101CD000064900F0070208684FF6FF03184040EA83
:101CE0000220034A10430860704700000CED00E03A
:101CF0000000FA0510B501460020234C012922D02E
:101D0000022939D010291DD161682268D20119D564
:101D10001E48C1F38342C903805C0AD561681B4A2F
:101D2000C1F34041921E515C194AB2FBF1F14843A4
:101D300001E0184948436168490203D44000032187
:101D4000B0FBF1F010BD226AC2F30121012903D1D9
:101D5000920701D5C80310BD022905D1626A920716
:101D600002D549F6404010BD0329FCD12168890302
:101D7000F9D54FF2244010BD00F02AF96168C1F393
:101D80008131491C4900DBE7001002400878000857
:101D900000127A0000093D002DE9F843054600785D
:101DA000354CC00754D0E0690026C00008D4E06973
:101DB00040F08050E061E069012600F08050009022
:101DC0002E480168C90512D40168804641F480712B
:101DD0000160FFF73FFC074605E000BFFFF73AFC54
:101DE000C01B642823D8D8F80000C005F6D5206AA7
:101DF00010F4407021D0A98801F4407181421CD0B8
:101E0000206A1F49012220F440700A6000220A6003
:101E10002062C00711D0FFF71DFC074641F2883849
:101E200008E000BFFFF716FCC11B414502D90320A3
:101E3000BDE8F883206A8007F4D5206A696820F439
:101E40004070084320621EB1E06920F08050E061DC
:101E50002878800705D56068A96820F440400843C9
:101E600060602878C00605D56068E96820F48000C5
:101E7000084360600020DBE7001002400070004073
:101E8000400442422DE9F0470F46050061D0434E21
:101E9000306800F00700B84209D2306820F007002F
:101EA00038433060306800F00700B84251D12868EC
:101EB0003B4C810712D5400703D5606840F4E060D1
:101EC00060602878000703D5606840F46050606067
:101ED0006068A96820F0F000084360602878C007B7
:101EE00028D06868012810D02168022810D08907FE
:101EF00000292EDA616821F0030101436160FFF7D8
:101F0000A9FB804641F288390DE021688903EFE79B
:101F10008901EDE7FFF79EFBA0EB0801494502D9D7
:101F20000320BDE8F0876068696800F00C00B0EB42
:101F3000810FEFD1306800F00700B8420BD930684C
:101F400020F0070038433060306800F00700B842E6
:101F500001D00120E5E72878400705D56068E968E9
:101F600020F4E060084360602878000706D56068C8
:101F7000296920F4605040EAC100606000F038F840
:101F80006168084AC1F30311515CC8400649086002
:101F900006480068FFF730FE0020C2E7002002403C
:101FA00000100240187800082000002018000020CF
:101FB0000448054900684968044AC1F30221515C9C
:101FC000C840704720000020001002402878000818
:101FD0000448054900684968044AC1F3C221515CBC
:101FE000C8407047200000200010024028780008F8
:101FF0000E4A51680E4801F00C03042B11D0082B37
:102000000FD10C48C1F38343C903C05C0AD55168A2
:10201000084AC1F34041921E515C054A5043B0FB4F
:10202000F1F0704704494843704700000010024037
:1020300000127A00F677000800093D002DE9F84FFC
:10204000040070D02078C04DC00749D06868C0F344
:102050008100012807D06868C0F38100022809D1F7
:102060006868C00306D52868800339D560680028F1
:10207000E7D035E06068B0F5803F0BD010B1B0F527
:10208000A02F11D0286820F480302860286820F420
:10209000802002E0286840F480302860606890B1B9
:1020A000FFF7D8FA06460AE0286840F48020286046
:1020B000F0E700BFFFF7CEFA801B642873D82868CA
:1020C0008003F7D50CE0FFF7C5FA064605E000BF30
:1020D000FFF7C0FA801B6428F0D828688003F7D483
:1020E00020789A4E80074FF001094FF0000839D54B
:1020F000686810F00C0F07D06868C0F381000228F0
:1021000009D16868C00306D42868800714D52069FF
:10211000012808D110E02069B0B1C6F80090FFF79F
:1021200099FA074605E00AE1FFF794FAC01B022876
:10213000C4D828688007F7D52868616920F0F800BE
:1021400040EAC10028600DE0C6F80080FFF782FA7F
:10215000074604E0FFF77EFAC01B022823D8286850
:102160008007F7D4207800072CD57948A169D9B128
:10217000C0F80090FFF76EFA074604E0FFF76AFA2E
:10218000C01B02280FD8686A8007F7D571484FF442
:10219000FA510068B0FBF1F0009000BF0098411EBA
:1021A0000091FAD20EE080E0C0F80080FFF752FA0A
:1021B000074604E0FFF74EFAC01B022875D8686A8C
:1021C0008007F7D42078400760D5E8690027C00071
:1021D00008D4E86940F08050E861E869012700F020
:1021E000805000905C480168C90513D4016883469B
:1021F00041F480710160FFF72DFA824606E000BFCE
:10220000FFF728FAA0EB0A0064284ED8DBF800009C
:10221000C005F5D5E06801280AD008B1052813D01B
:10222000286A20F001002862286A20F0040002E0F9
:10223000286A40F001002862E06841F2883B98B1CA
:10224000FFF708FA82460BE0286A40F00400286293
:10225000EEE700BFFFF7FEF9A0EB0A0159455AD897
:10226000286A8007F6D50CE0FFF7F4F9824605E00E
:10227000FFF7F0F9A0EB0A0159454CD8286A80070E
:10228000F6D41FB1E86920F08050E861E06988B3B6
:102290006968C1F38101022944D00228C6F8608030
:1022A00004D0FFF7D7F9044638E034E0FFF7D2F95D
:1022B000074604E0FFF7CEF9C01B02282BD8286898
:1022C0008001F7D4206AB0F5803F05D16868A16825
:1022D00020F4003008436860D4E9080108436968C5
:1022E00021F4741108436860C6F86090FFF7B2F9F2
:1022F000044606E025E000BFFFF7ACF9001B02280A
:1023000009D828688001F7D51BE000BFFFF7A2F9C4
:10231000001B022802D90320BDE8F88F286880013D
:10232000F4D40EE00128F7D06868226A00F4803106
:10233000914204D1616A00F47010884201D00120FA
:10234000EAE70020E8E700000010024000004242F7
:1023500080044242200000200070004010B5401E62
:10236000B0F1807F01D3012010BD4FF0E024606107
:102370000F21601701F0C8F80020A061072020613C
:10238000002010BD70477047F8B501680446086822
:10239000CA684B6910F00F0F4FF0000559D003F0D9
:1023A000010602F49077374365D0C10705D0D10507
:1023B00003D5616C41F001016164410705D5D9077E
:1023C00003D0616C41F002016164810705D5D90732
:1023D00003D0616C41F004016164010707D502F08C
:1023E0002001314303D0616C41F008016164616CEC
:1023F00000293AD0800604D5900602D5204600F088
:1024000041FF20684069616CC0F38010090700D467
:1024100060B3204600F00FFF20684069400621D5D8
:102420002068143050E8001F21F0400140E80012FD
:10243000002AF5D1E06BA8B16D494163E06BFEF76E
:10244000A5FE002811D0E06B416B01B0BDE8F04063
:10245000084783060FD593060DD52046BDE8F84002
:1024600000F010BF2046FFF78EFFF8BD2046FFF7B3
:102470008AFF6564F8BD266B2023012E7CD1C60639
:102480007AD5D60678D508684868009048694FF034
:102490000206400640D5E16B086840680004000C65
:1024A000E8D0A28D8242E5D9E085886920282DD028
:1024B00020680C3050E8001F21F4807140E80012C1
:1024C000002AF5D12068143050E8001F21F00101E6
:1024D00040E80012002AF5D12068143050E8001FAF
:1024E00021F0400140E80012002AF5D184F8423082
:1024F000256320680C3050E8001F21F0100140E8EF
:102500000012002AF5D1E06BFEF71CFE6663A08D79
:10251000E18D401A81B22AE0A08DE18D401A81B28E
:10252000E08D0028A6D00029A4D022680C3252E801
:10253000000F20F4907042E80007002FF5D12068CA
:10254000143050E8002F22F0010240E80027002F4D
:10255000F5D184F84230256320680C3050E8002F14
:1025600022F0100240E80023002BF5D166632046DC
:10257000FFF708FFF8BDFFE705062BD5150629D59F
:1025800094F841002128F5D1A068B0F5805F01D111
:102590002069B0B1206A411C21622168007848603E
:1025A000E08C401E0004000CE084E3D12068C16888
:1025B00021F08001C1602068C16841F04001C16024
:1025C000D8E7206A0088C0F308004860206A801CB1
:1025D0002062E5E74006CDD55006CBD5CA68204637
:1025E00022F04002CA6084F8413000F03EF9C1E7B1
:1025F0002732000870B5040004D094F8410000258B
:1026000010B106E0012070BD84F84050204600F073
:1026100023F8242084F841002068C16821F4005187
:10262000C160204600F090FE2068016921F49041CD
:1026300001612068416921F02A0141612068C16877
:1026400041F40051C1606564202084F8410084F8A1
:1026500042006563002070BDF0B585B000240646D9
:10266000009401940294039400682D49884255D146
:102670002C48816941F480418161816901F4804184
:102680000491816941F0040181618069264D00F067
:10269000040004904FF40070009002200190032089
:1026A000039069462846FEF7DFFE2815CDE90004B1
:1026B000694628460294FEF7D7FE1D4D1B48802729
:1026C000C5E90004C5E902472C616C61AC6128468C
:1026D000EC61FEF751FE08B1FEF7BEFAF5636E62DB
:1026E000134D12484435143801C5102091C52020DF
:1026F00045F81049C5E905400D48EC614430FEF746
:102700003BFE08B1FEF7A8FAB5630022114625206A
:102710006E62FFF7BDFA2520FFF7ACFA05B0F0BDF9
:1027200000380140001002400008014058000240FB
:102730005415002090F84230202B01D00220704721
:1027400021B11AB10023036300F05ABE0120704783
:1027500070B51C4C1C48E61C61680025491C616072
:1027600032780144FF2A01F8012C21D1027801219D
:10277000012A02D0022A02D002E0217000E0257076
:102780004278012A02D0022A02D002E0617000E001
:1027900065708078012802D0022802D002E0A17082
:1027A00000E0A57041F288310748FDF703FD656040
:1027B0003570BDE8704003490122C91C0348FFF78A
:1027C000B9BF0000000000208C0000200C15002084
:1027D0002DE9F843044690F841001F4616460D4681
:1027E000202802D00220BDE8F8837DB176B1002018
:1027F0006064212084F84100FEF72CFFA684804607
:10280000E684A068B0F5805F02D003E00120EAE72B
:10281000206910B12E4600250EE000260CE0802134
:10282000204600F008FEA0B9AEB116F8010B2168F1
:102830004860E08C401EE084E08C43464FF000028C
:1028400000970028EBD14FF04001204600F0F3FD47
:1028500030B10320C7E735F8020BC0F30800E6E704
:10286000202084F841000020BDE77047FEE70168A2
:102870004A69D24352050FD46FF480624A61002145
:1028800040F8301F202242738173026942F0040233
:102890000261017301207047002070472DE9F84F55
:1028A0000446006889460B9D01689846174641F426
:1028B000806101602068016841F4807101600095C9
:1028C0004FF0011B0022594620460A9B00F0E4F815
:1028D0004FF4007A40B120680068C00501D5C4F803
:1028E00040A00320BDE8F88F216809F0FE000861D0
:1028F0002B46284920460A9A00F016F9F0BB2068BA
:102900004169806900902A4620460A9900F0A2F9A0
:1029100040B1206C04283AD12068016841F400716C
:10292000016034E0FEB2B8F1010F09D02168380A25
:1029300008612A4620460A9900F08CF90028E8D15F
:10294000206806612A4620460A9900F083F900288B
:10295000DFD12068016841F4807101600095002298
:10296000594620460A9B00F097F80028B3D1216809
:1029700009F0FF0040F00100086100E007E02B468D
:10298000044920460A9A00F0CFF80028AAD0012076
:10299000A8E70000020001002DE9F84304460068A2
:1029A0000D46DDE9089701689846164641F48071A6
:1029B00001604B4600224FF001112046009700F0C5
:1029C0006BF848B120680068C00502D54FF400706C
:1029D00020640320BDE8F883216805F0FE0008614B
:1029E0003B464A461549204600F09EF888B92068C3
:1029F0004169806900903A464946204600F02AF92C
:102A000048B1206C042804D12068016841F40071A9
:102A100001600120DEE7F5B2B8F1010F09D02168AD
:102A2000300A08613A464946204600F013F900286A
:102A3000E7D1206805610020CCE70000020001001A
:102A400070B516460D4604461EE02046FFF70FFF00
:102A500008B1012070BD681C16D0FEF7FBFD801B7D
:102A6000A84200D885B920684069C04340070BD50B
:102A7000002044F8300F20216173A073216941F0D8
:102A8000200121612073E4E720684069C0434007CA
:102A9000DBD4002070BD00002DE9F04798461746B2
:102AA0000D460446C1F30746DDF820902AE000BF3A
:102AB000B8F1FF3F26D0FEF7CDFDA0EB090141455F
:102AC00002D8B8F1000F1DD12068012E16D0806900
:102AD00025EA00000004000C12D00020B84211D1F9
:102AE000002044F8300F20216173A073216941F068
:102AF0002001216120730120BDE8F0874069E7E7EC
:102B00000120EBE72068012E0AD0806925EA000049
:102B10000004000C06D00020B842C9D00020EBE72A
:102B20004069F3E70120F7E72DE9F047984616469C
:102B30000D4604464FF000094FF0200AC1F3074745
:102B400023E020684069C043400515D4206801682F
:102B500041F40071016021686FF480604861C4F83D
:102B6000309084F83DA084F83E90216C41F004013F
:102B7000216484F83C9021E0701C06D0FEF76AFDC9
:102B8000A0EB0800B04203D816B1012F1FD021E0FE
:102B90002068012F15D0806925EA00000004000C90
:102BA00018D000BF44F8309F84F80DA084F80E9030
:102BB000216941F02001216184F80C900120BDE8D9
:102BC000F087406925EA00000004000CEAD1206883
:102BD000406901E02068806925EA00000004000CDB
:102BE000AFD1ECE72DE9F041002590460E460446B2
:102BF000202728E04069C043C0060CD454F8301B9D
:102C00006FF01000486144F810596777A577206A83
:102C10002062257714E0FEF71DFDA0EB0800B0420E
:102C200000D886B920684069C04340060BD544F8F7
:102C3000305F6773A573206940F020002061257321
:102C40000120BDE8F08120684169C9434906D1D41B
:102C50000020F6E770B516460D4604461EE02046F5
:102C6000FFF705FE08B1012070BD681C16D0FEF705
:102C7000F1FC801BA84200D885B920684069C04398
:102C800000060BD5002044F8300F20216173A0739B
:102C9000216941F0200121612073E4E72068406947
:102CA000C0430006DBD4002070BD00002DE9F74FC3
:102CB0008EB00CA902A8CDE900010BAB03AA09A9AB
:102CC00007A801F0A1FD20B14FF0FF3011B0BDE821
:102CD000F08FBDF80800C0057ED50398FDF7C8FB4E
:102CE0006FF01D042146FDF745FB82460498FDF771
:102CF000BFFB2146FDF73EFB81460598FDF7B8FB7B
:102D00002146FDF737FB80460698FDF7B1FB2146CB
:102D1000FDF730FB054601215046FDF72BFB06462B
:102D20004146FDF7B7FA07464FF040414846FDF7E8
:102D3000B1FA04462946FDF7ADFA3946FDF752FAD5
:102D4000FDF7D1FB01F008F94FF0663B5A463D4BC9
:102D5000FDF71CFBFDF7DAFB0E99086001214046E8
:102D6000FDF708FB41460090FDF794FA0746204620
:102D70004946FDF78FFA3946FDF786FA4FF07E5146
:102D8000FDF730FAFDF7AFFB07460C4630464946E3
:102D9000FDF780FA064629460098FDF77BFA314692
:102DA000FDF720FAFDF79FFB3A46234601F01CFB96
:102DB0005A46244BFDF7EAFAFDF7A8FB0F99086085
:102DC00029460846FDF766FA074641460846FDF7DC
:102DD00061FA0646494600E031E00846FDF75AFA36
:102DE000044651460846FDF755FA2146FDF7FAF923
:102DF0003146FDF749FA3946FDF746FAFDF773FB10
:102E000006460C4641464846FDF744FA0746294621
:102E10005046FDF73FFA3946FDF7E4F90121FDF789
:102E2000A9FAFDF760FB3246234601F0DDFA5A4667
:102E3000044BFDF7ABFAFDF769FB10990860002021
:102E400044E7000066A64C4038B5684603F03AFEF9
:102E500010B14FF0FF3038BD782004F07DFB10B189
:102E60006FF0010038BD782003F05EFD10B16FF007
:102E7000020038BD642004F023FB10B16FF00300A2
:102E800038BD01F0B7FC10B16FF0040038BD19482F
:102E9000044602F0DDFA0546E01C02F0D9FA45EAE4
:102EA000C005A01D02F0D4FA45EA801080B201F0FE
:102EB00053FE10B16FF0050038BD40F2731001F001
:102EC00071FB10B16FF0060038BD642001F0ACFD5D
:102ED00010B16FF0070038BD04F0E6FB10B16FF0E1
:102EE000080038BD012004F0E7F90028F9D06FF0A0
:102EF000090038BD50000020FEB500243E48009473
:102F000001943C4902940160891581600125057393
:102F100004750A2606614FF460214460C161FDF723
:102F20008BFF08B1FDF798FECDE9004507246946FF
:102F300031480294FDF7FEFE08B1FDF78DFE0095C5
:102F4000022569462C480195FDF7F4FE08B1FDF70E
:102F500083FE00950325694627480195FDF7EAFEA3
:102F600008B1FDF779FE00950425694622480195D0
:102F7000FDF7E0FE08B1FDF76FFE009505256946F7
:102F80001D480195FDF7D6FE08B1FDF765FE0095D9
:102F90000625694618480195FDF7CCFE08B1FDF7F6
:102FA0005BFECDE9005469461348FDF7C3FE08B146
:102FB000FDF752FE0094082469460F480194FDF77E
:102FC000B9FE08B1FDF748FE0094092469460A4895
:102FD0000194FDF7AFFE08B1FDF73EFECDE90046D6
:102FE00069460548FDF7A6FE002801D0FDF734FE2E
:102FF000FEBD00000024014014140020FEB5002492
:103000001648009401941449029401608915816066
:10301000012505730475022606614FF460214460A2
:10302000C161FDF709FF08B1FDF716FE0720009406
:10303000CDE9015069460948FDF77CFE08B1FDF76E
:103040000BFECDE9005669460448FDF773FE0028E3
:1030500001D0FDF701FEFEBD002801404414002010
:10306000114808B5416941F0010141614069002200
:1030700000F00100009011460B20FEF709FE0B2026
:10308000FEF7F8FD002211460E20FEF701FE0E208D
:10309000FEF7F0FD002211460F20FEF7F9FDBDE816
:1030A00008400F20FEF7E6BD0010024070B586B064
:1030B00000241C480094019402940394816941F017
:1030C00010018161816901F010010491816941F071
:1030D00020018161816901F020010491816941F041
:1030E00004018161816901F004010491816941F069
:1030F0000801816180690C4E00F008004FF49C7556
:103100000490002229463046FEF79EFA01200095E1
:10311000CDE901040220039069463046FEF7A4F988
:1031200006B070BD00100240000C01400D4810B503
:103130000B4901600C49416000214FF480428160DD
:10314000C0E9031241618161C1610162FEF788FA41
:10315000002803D0BDE81040FDF77EBD10BD000083
:1031600000540040B8140020A08601000C4810B59F
:103170000A4901604FF416414160002181600C2230
:10318000C160C0E904128161C161FFF733FA002810
:1031900003D0BDE81040FDF75FBD10BD0038014011
:1031A0000C150020FEE7FEE770477047FEF70ABDEA
:1031B00030B593B028216846FCF7FCFF14210AA81B
:1031C000FCF7F8FF002401210F9410940804CDE9C6
:1031D000001011941294029402250491CDE9075035
:1031E000800009906846FEF729FF08B172B6FEE735
:1031F0000F20CDE90A054FF48060CDE90C40002195
:103200000AA80E94FEF73EFE08B172B6FEE70FA8BC
:103210000F951194FEF7C0FD002801D072B6FEE7AD
:1032200013B030BD704710B5406A0021C185C1841C
:10323000FFF7A9F810BD01680C3151E8002F22F406
:10324000907241E80023002BF5D10168143151E858
:10325000002F22F0010241E80023002BF5D1016B81
:10326000012909D101680C3151E8002F22F0100228
:1032700041E80023002BF5D1202180F842100021E5
:103280000163704708B590F84210222901D002204E
:1032900008BD82684FF480539A4201D1016921B17F
:1032A000816A9A421BD04AB10AE00268816A526878
:1032B000C2F308020A80816A891C08E0026972B1BF
:1032C0000268526802F07F020A70816A491C8162BA
:1032D000C18D491E0904090CC18503D01BE0026899
:1032E0005268F1E70168CA6822F02002CA600168EA
:1032F000CA6822F48072CA6001684A6922F0010239
:103300004A61202180F8421000214163026B012AAA
:1033100003D0FFF71DFA002008BD016301680C31DE
:1033200051E8002F22F0100241E80023002BF5D1D4
:1033300001680A68D20602D50A6849680091818D41
:10334000FFF720F8E7E7000070B504460068016960
:10335000E26821F44051114301612169A0680843EA
:10336000616908432168CA6841F20C639A430243C9
:10337000CA6020684169A26921F44071114341612A
:103380001E492068884202D1FEF722FE01E0FEF7C6
:103390000FFE00EBC00101EB0012606864218000A9
:1033A000B2FBF0F3B3FBF1F36FF018067343B2FB1B
:1033B000F0F5B2FBF0F605EB8305322303EB0515C0
:1033C000B5FBF1F5B6FBF1F605F0F00505EB0615DA
:1033D000B2FBF0F6B2FBF0F0B0FBF1F06FF01802C8
:1033E000504306EB800003EB0010B0FBF1F02168C6
:1033F00000F00F002844886070BD000000380140D4
:1034000081628285C28500214164222180F84210B8
:10341000016921B10168CA6842F48072CA6001681A
:103420004A6942F001024A610068C16841F0200126
:10343000C160002070472DE9F041984617460E46BE
:103440000446069D27E0681C25D02DB1FEF702F941
:10345000A0EB0800A8421ED920680C3050E8001FDD
:1034600021F4D07140E80012002AF5D12068143010
:1034700050E8001F21F0010140E80012002AF5D1B8
:10348000202084F8410084F84200002084F84000A5
:103490000320BDE8F0812068006836EA000004D00F
:1034A0000020B842CFD00020F3E70120F9E7000068
:1034B0000148FEF769BF00000C150020FEE7000080
:1034C0000FB4054B10B503A9044A029800F06CF93B
:1034D00010BC5DF814FB0000A14E00085C00002049
:1034E000490050EAC12018BF04204A0D18BF40F01F
:1034F000010040F2FF72B2EB515F08BF40F00200E2
:10350000012808BF052070470907090E002804DBC1
:1035100000F1E02080F80014704700F00F0000F187
:10352000E02080F8141D70472DE9F0414F1E00EB9C
:10353000C7010446D1E9000115461E4637F00602D0
:103540000DD02A463346FCF721FF7F1E04EBC7034C
:10355000D3E90023FDF7D1F837F00602F1D1022FAD
:1035600025D0042F13D0062F18BFBDE8F0812A46BE
:103570003346FCF70BFFD4E90A23FDF7BEF82A46D1
:103580003346FCF703FFD4E90823FDF7B6F82A46D3
:103590003346FCF7FBFED4E90623FDF7AEF82A46D6
:1035A0003346FCF7F3FED4E90423FDF7A6F82A46D8
:1035B0003346FCF7EBFED4E90223FDF79EF82A46DA
:1035C0003346FCF7E3FED4E90023BDE8F041FDF704
:1035D00094B80122FDF7A7B9FDF78FB80022134672
:1035E00010461146FDF730B9024A00201107FDF7D9
:1035F0009AB9000001FDFFFF02E008C8121F08C1D0
:10360000002AFAD170477047002001E001C1121F63
:10361000002AFBD170470000014908607047000094
:10362000600000202DE9FF5F82B00021DDE9043059
:10363000020DDDF840B0034318D044F61050A2F25A
:10364000FF3242431514119801281FD0A5EB0B003F
:10365000401C5FEA000A4FF000064E4FDFF8389139
:10366000B046504615D5CAF1000413E01198012464
:103670004AA3012801D16FEA0B010298119AC0E90F
:103680000031C0E9024206B0BDE8F09FCBF1000076
:10369000DFE704460021404A491842EB0450CDE9D7
:1036A000001012E0E00707D032463B46404649464C
:1036B000FCF76CFE8046894632463B46104619466A
:1036C000FCF764FE06460F466410002CEAD1DDE9E3
:1036D0000401DDE90023BAF1000F06DAFCF756FE1B
:1036E00042464B46FCF752FE05E0FDF7ADF8424678
:1036F0004B46FDF7A9F804460E460022284BFDF77D
:1037000093F903D84FF0FF30014607E00022254B24
:1037100020463146FCF7F1FFFDF76DF9102409E072
:10372000002C0ADB0A220023FCF722FF039B303225
:103730001A55641E50EA0102F2D1641C039AC4F1C6
:1037400011031444119A012A03D0012208430DD118
:103750000AE0084304D000204FF0110B119072E7EB
:10376000A3EB0B056D1E0DE05B4504DD4FF0000281
:1037700005F1010504E003DA4FF00002A5F10105AF
:10378000002AECD002981199C0E90231C0E9004545
:1037900079E70000000014400000F03F3000000016
:1037A0000000F0430000E03F2DE9FF4F95B09B463D
:1037B0008946064600250FE2252877D100242746B2
:1037C000F84A0121059400E0044316F8013F203B2C
:1037D00001FA03F01042F7D130782A2811D06FF0A7
:1037E0002F033078A0F13002092A16D8059A44F048
:1037F000020402EB820203EB42021044761C0590A5
:10380000EFE759F8042B0592002A03DA504244F4FA
:103810000054059044F00204761C30782E2816D10E
:1038200016F8010F44F004042A280DD06FF02F027F
:103830003078A0F13003092B09D807EB870302EB9E
:103840004303C718761CF3E759F8047B761C3078DD
:103850006C280FD006DC4C2817D068280DD06A28B9
:1038600014D104E0742810D07A280FD10DE044F46C
:1038700000140AE044F4801401E044F44014727827
:10388000824202D104F58014761C761C30786628BA
:103890000BD013DC582877D009DC002875D04528D8
:1038A000F6D04628F4D047281AD19DE118E06328C5
:1038B00035D0642879D0652812D195E1702873D06D
:1038C00008DC6728F1D069286FD06E280DD06F28EA
:1038D00006D1B5E073282CD0752875D0782874D01F
:1038E0005A46179990476D1C75E1C4F3025002289F
:1038F00009D003280DD0D9F8001004280DD00D6090
:1039000009F1040967E1D9F80010EA17C1E900528A
:10391000F6E7D9F800100D80F2E70D70F0E719F81E
:10392000041B8DF8001000208DF80100EA460120EC
:1039300003E059F804AB4FF0FF3061074FF000018E
:1039400002D40DE008F101018846B9420FDA804542
:10395000F8DB1AF808100029F4D108E008F1010199
:1039600088468142FADB1AF808100029F6D105983A
:103970005B46A0EB080721463846179A00F094FAF8
:10398000284400EB080507E04DE029E10DE01AF8B6
:10399000010B5A4617999047B8F10108F7D25B46D8
:1039A00021463846179A13E142E00A220092C4F3F6
:1039B00002524FF0000A022A08D059F804CB032A19
:1039C0004FEAEC710AD00DE029E02AE009F1070185
:1039D00021F00702F2E802C1914609E00FFA8CFCDF
:1039E0004FEAEC71042A03D14FFA8CFC4FEAEC71D8
:1039F000002907DA0A460021DCF1000C61EB020124
:103A00002D2202E0220504D52B228DF8042001226C
:103A100003E0E20701D02022F7E7904659E00A21AF
:103A200002E010220DE010214FF0000A00910BE09F
:103A300010224FF0000A44F004040827009203E02B
:103A400008224FF0000A0092C4F30252022A05D065
:103A500059F804CB0021032A08D009E009F1070135
:103A600021F00702F2E802C1914605E01FFA8CFC42
:103A7000042A01D10CF0FF0C4FF00008220728D5D2
:103A8000702806D0009B83F0100353EA0A0305D088
:103A90000EE040228DF80420012208E05CEA0102D9
:103AA00006D030228DF804208DF8050002229046C1
:103AB000009B83F0080353EA0A030AD15CEA01027F
:103AC00001D1620705D530228DF804204FF001089E
:103AD0007F1E582804D034A003900EA802900DE059
:103AE00036A0F9E753466046009AFCF741FD84464C
:103AF0000398825C0298401E029002705CEA01000A
:103B0000F0D1029806A9081A00F1200A600702D530
:103B100024F4803400E00127574502DDA7EB0A00BA
:103B200000E0002000EB0A01009005984144401A93
:103B30000590E00306D45B462146179A059800F0ED
:103B4000B3F90544002706E001A85A46C05D17995D
:103B500090476D1C7F1C4745F6DBE0030CD55B46A8
:103B60002146179A059800F09FF9054404E030209B
:103B70005A46179990476D1C0099481E00900029DD
:103B8000F5DC08E0029802995A460078491C029137
:103B9000179990476D1CBAF10001AAF1010AF1DCF6
:103BA00065E1000009280100303132333435363701
:103BB0003839616263646566000000003031323379
:103BC0003435363738394142434445460000000019
:103BD00000F058F90544761C307800287FF4ECADED
:103BE00019B02846BDE8F08F620700D4062709F116
:103BF000070222F0070CFCE80223E14603F000482C
:103C00005FEA080C02D00FF2702C0DE05FEA045C52
:103C100002D50FF2682C07E05FEAC47C02D00FF2F5
:103C2000602C01E0AFF2700C4FF0FF3823F000433E
:103C3000CDF850C065280CD006DC452809D04628B0
:103C40001DD047283DD13DE0662818D067287ED199
:103C500038E00021112F01DB112000E0781CCDE9B4
:103C6000000106A90EA8FFF7DDFCDDE90F010E9AA1
:103C700003910021009207F1010A04914DE04FF0F9
:103C800000400097CDE9011006A90EA8FFF7CAFC75
:103C9000DDE90F0203920E9B11990022DDF80CA0C2
:103CA0000093049211B9791C00EB010AB7EB0A00EA
:103CB00004D4C0F1FF3007F1010A0490AAEB070019
:103CC000019044E0012F00DA01270021112F01DDCE
:103CD000112000E03846CDE9000106A90EA8FFF743
:103CE000A1FCDDE90F010E9A0391002104910092DD
:103CF000BA4621070CD40399514500DA8A46BAF135
:103D0000010F05DD009AAAF10101515C302908D0AC
:103D1000B84202DA10F1040F06DA0121CDE90110F0
:103D200015E0AAF10101E9E7002805DC0499014446
:103D30000491AAEB000102E0411C514500DD8A46D6
:103D40000499401A401C01904FF000400290200757
:103D500004D40198504501DBCDF8048000208DF893
:103D60004F0002980DF14F07B0F1004F25D02B20E6
:103D70000E9002984FF0020800280CDA40420290A0
:103D80002D200E9007E00A210298FCF7DBFB303172
:103D9000029007F8011DB8F10001A8F10108F2DC5A
:103DA00002980028EFD1791E0E980870307800F044
:103DB000200040F0450007F8020D12A8C01B00F1DA
:103DC00007081498007800B1012000EB0A0101985F
:103DD00001EBE07105984144401A401E0590E00354
:103DE00006D45B462146179A059800F05DF8054415
:103DF0001498007818B15A46179990476D1CE00343
:103E000024D55B462146179A059800F04DF80544E5
:103E10001CE00498002807DBDDE90301884203DD8C
:103E20000098405C179901E0179930205A46904756
:103E3000049805F10105401C04900198401E019072
:103E400004D12E205A46179990476D1CBAF10001F3
:103E5000AAF1010ADDDC05E017F8010B5A461799B3
:103E600090476D1CB8F10001A8F10108F4DC5B4635
:103E70002146179A0598ABE62D0000002B000000A4
:103E8000200000002DE9F041044600251E4617469B
:103E9000880404D405E039462020B0476D1C641E18
:103EA000F9D52846BDE8F0812DE9F041044600250A
:103EB0001E469046C80301D5302700E0202788041D
:103EC00004D505E041463846B0476D1C641EF9D55F
:103ED0002846BDE8F08100002DE9FE4F07460E465A
:103EE0000025684600F0E8FF00246FF00F0AE8465E
:103EF0004FF0010957F8240056F82410401A00D555
:103F00004042FCF7B5FA5146FCF734FA58F8241051
:103F100011F0FF4F0BD0FCF7EFF94FF07E51FCF79B
:103F2000B3F90A4920F00040884205DC07E008495F
:103F300008440849884202D309FA04F00543641C86
:103F4000032CD7DB2846BDE8FE8F0000295C0F3E1E
:103F5000666666C19A99D9002DE9F04D8D4F21F022
:103F6000004A86B005460C46BA452ADBAAEB070094
:103F700028430AD08848824501DC1AD1CDB106B069
:103F80002846BDE8F04DFFF724BB844A844B284601
:103F9000FCF7FCF907460E46824A834B2846214629
:103FA000FCF7F4F906B03A463346BDE8F04DFCF7AD
:103FB000A4BB0120FFF730FB06B0BDE8F04DFFF7D2
:103FC0000DBB7A48824542DABAF1795F0BDA2846AE
:103FD000FFF786FA042808BFFFF706FB284606B05D
:103FE0002146BDE8F08D2A460B461046FCF7CEF977
:103FF000834602466E480E460B4606217844FFF77C
:1040000093FA5A463346FCF7C1F9804669488A4616
:104010005A46334604217844FFF786FA5A46334617
:10402000FCF7B4F900223B46FCF767FB02460B465F
:1040300040465146FCF708FC2A462346FCF7A6F901
:1040400006B02A462346BDE8F04DFCF756BB28468D
:1040500024F0004100223D463B46FCF7F2FB4FF0C6
:10406000FF32FCF760FC0646024653480F460B46FB
:1040700006217844FFF758FA32463B46FCF786F9AA
:10408000CDE900014D4832463B4604217844FFF714
:104090004BFA32463B46FCF779F900222B46FCF7F7
:1040A0002CFB834602913046394603F07DFB804667
:1040B00043480D46504517DCDDE900015A46029B96
:1040C000FCF7C2FB42462B46FCF760F942462B4602
:1040D000FCF713FB0122FCF726FC304A304BFCF7BF
:1040E000ADFB304A304B4CE04FF0000A52460B46D5
:1040F0004046FCF702FBCDE9031052462B46104622
:104100001946FCF743F932463B46FCF79AFBDDE9DA
:104110000332FCF799FB06460F46DDE900015A46DB
:10412000029BFCF791FB8346009101223046394601
:10413000FCF7F9FB194A1A4BFCF783FB06460F46BE
:10414000012240462946FCF7EEFB5A46009BFCF74D
:104150001DF932463B46FCF771FB06460F4601222D
:1041600050462946FCF7DFFB0E4DDFF858802A4603
:104170004346FCF766FB32463B46FCF762FB2A46A9
:104180004346FCF75EFB002CD8BF81F0004106B02F
:10419000BDE8F08D0000F03F0000F07F075C1433B5
:1041A00026A6913C182D4454FB21F93F0000E03F26
:1041B00080440000964400000A44000020440000AF
:1041C0003333EF3FFB21E93F2DE9F84F04460D461D
:1041D00021F0004000917349814211DC724988420C
:1041E00001DC06D12CB120462946BDE8F84FFFF787
:1041F000F0B96E48002DCCBF6D496E49BDE8F88F0F
:104200006D49814211DD6D498142D8BF4FF0FF36C3
:104210006DDD20462946FFF763F9042808BFFFF744
:10422000E3F920462946BDE8F88F6549654F25F03A
:104230000045814233DD6449814219DD0026324662
:104240004FF0804320462946FCF757FA80468A46BD
:10425000012220462946FCF766FB00223B46FCF77C
:10426000EDFA42465346FCF7EFFA04460D463EE0AF
:1042700001260022BA463B4620462946FCF73DFA75
:1042800080460F460022534620462946FCF7D6FAC0
:1042900042463B46FCF7D8FA04460D4627E04B4918
:1042A00081421BDDDFF828A102260022534620466A
:1042B0002946FCF76BF800223B46FCF71EFA8046C5
:1042C0000F460022534620462946FCF7B7FA4246DD
:1042D0003B46FCF7B9FA04460D4608E003262246A1
:1042E0002B4600203B49FCF7AFFA04460D46224618
:1042F0002B4610461946FCF749F88B468246024683
:104300000B46FCF743F807460246334888460B46FF
:1043100006217844FFF708F952465B46FCF736F869
:1043200082462E488B463A46434605217844FFF79D
:10433000FBF83A464346FCF729F802460B46002EA6
:10434000504659460CDAFCF7D8F922462B46FCF7C2
:104350001DF801B022462B46BDE8F04FFCF771BABC
:10436000FCF7CBF922462B46FCF710F81C4A7A449E
:1043700002EBC603D3E90023FCF760FA22462B4682
:10438000FCF75CFA174A7A4402EBC603D3E9002330
:10439000FCF757FA009A002AB8BF81F00041BDE847
:1043A000F88F0000000010440000F07F182D4454E6
:1043B000FB21F93FFB21F9BF0000DC3F0000203E5C
:1043C0000000F33F0000F03F0000E63F00800340A4
:1043D0000000F83F0000F0BF22420000E041000072
:1043E0007E410000464100002DE9F04D9446CCF19D
:1043F000000423F000464CEA0404524F46EAD47409
:104400009A46884621F00042BC4206D8454240EA1E
:10441000050442EAD474BC4204D9BDE8F04D6246BA
:10442000FFF7DAB8AAF14055A5F17F6555EA0C040B
:104430000BD0022404EAAA74434DDFF810E144EAE9
:10444000D87452EA000B04D00CE0BDE8F04DFFF741
:10445000BBBE002C14BF012CBDE8F08D022C30D067
:10446000032C32D056EA0C0B0AD0BE4220D1BA42FD
:1044700009D126F0804622F080423346114617E0EB
:1044800000291ADB25E0DFF8C8B0FB44002C04BF8C
:10449000DBE90001BDE8F08D012C02BFDBE9000182
:1044A00081F00041BDE8F08D022C0AD0032C0CD025
:1044B000BA4212D1B8F1000F0BDA23482549BDE802
:1044C000F08D28462449BDE8F08D28467146BDE8A8
:1044D000F08D1D482149BDE8F08D921B12153C2A34
:1044E000C4BF19481D490EDCBAF1000FBEBF12F15E
:1044F0003C0F0020014606DB6246FCF7A5F921F0DF
:104500000041FFF761FE002C08BFBDE8F08D012CD3
:1045100004BF81F00041BDE8F08D114A114B022C1F
:1045200007D0FCF78BF92A46BDE8F04D0A4BFCF7A3
:1045300085B9FCF783F92A46BDE8F04D064BFCF738
:1045400080B900000000F07F182D4454FB2109C001
:10455000DA400000FB21F9BFFB210940FB21F93FB4
:10456000075C143326A6A13C08B560B120208DF865
:10457000000028208DF8010030208DF8020038203E
:104580008DF8030004E0A32204216846FBF70BFE2C
:104590006A46042140F69E2003F04CF802F05CFCD1
:1045A00008BD00003EB5044602208DF80000CA2078
:1045B0008DF80100E3208DF8020009208DF803003A
:1045C0006A460421682003F035F8A3208DF8000026
:1045D000610609D5C0218DF80110C8218DF802109F
:1045E000C2218DF8031005E08DF801008DF802005E
:1045F0008DF8030014F4C07F09D0C4218DF8041095
:10460000CC218DF80510C6218DF8061005E08DF837
:1046100004008DF805008DF806008DF808008DF86F
:1046200007008DF809006A460A2140F6A72003F02A
:1046300001F8A0074FF0D80503D020208DF8000026
:1046400001E08DF800506A46012140F6B62002F0E4
:10465000F1FFA00601D5012000E0002000F08EF857
:1046600014F4C07F1ED0E0050AD5B2208DF80000FA
:104670008B208DF80100B6208DF802009B2009E008
:10468000B0208DF8000080208DF80100B4208DF856
:10469000020090208DF803006A46042140F6A22013
:1046A00002F0C8FFE1074FF40B6022D0F8218DF82B
:1046B00000106A46012102F0BDFFFA21072000F038
:1046C0003BFB072000F006FB012000F023FB6420E9
:1046D00000F0C6FB4FF4FA7000F0D2FBC821254869
:1046E00000F0C0FA282000F0D5FA0A2000F0E2FA23
:1046F00005E08DF800506A46012102F09BFFA007FB
:1047000003D5D9208DF8000001E08DF800506A46ED
:10471000012140F23D7002F08DFF600701D50120BC
:1047200000E0002000F048F8E00601D5012000E09C
:104730000020FFF719FF104D44F00800688102F0D7
:104740008BFB0020A873600601D50620A87314F423
:10475000C07F02D0A87B801DA87314F0140F02D074
:10476000A87B1030A873A00702D0A87B001DA873F7
:1047700000203EBD09E3CA02DC1500200EB54FF44F
:10478000976310B106A107C901E008A207CA8DE826
:1047900007006A460921184602F04CFF0EBD0000D2
:1047A000B8AAB38DB4980D355D000000B8AAAAAAC6
:1047B000B088C3C5C700000008B560B1C0208DF83F
:1047C0000000C2208DF80100C4208DF80200C62030
:1047D0008DF8030004E08B2204216846FBF7E3FC1C
:1047E0006A46042140F6982002F024FF02F034FBD0
:1047F00008BD0000C8234FF48062024940F6F6303D
:1048000002F0CEB9847800082DE9FF4F89B0174631
:10481000DDE9165200244D4E884681462C80A24682
:10482000B07B694602F07EFA4FF0FF3B18B1584664
:104830000DB0BDE8F08F708910F0140F3CD00099D6
:1048400009BA21F0FF039DF803100B433B60019967
:104850001B1409BA21F0FF029DF807105B430A43BD
:104860007A6002999DF80B4009BA21F0FF012143BB
:10487000B960039C091424BA24F0FF0C9DF80F4082
:1048800012144CEA040CC7F80CC04FEA2C474943F9
:1048900002FB023207FB071111441024A1F17061E1
:1048A000B1F1007F04D902F0D7FAA5F800A0BEE765
:1048B000298841F4807129804206694611D50A1978
:1048C000A41D13885BBAA8F8003053885BBAA8F817
:1048D0000230928852BAA8F804202A8842F00802CE
:1048E0002A8010F4C07F11D00A19A41D13885BBA66
:1048F000A9F8003053885BBAA9F80230928852BAFE
:10490000A9F804202A8842F070022A80800716D075
:104910000C44E07800F0C00500F03F016078C0076B
:1049200006D0C80801F007013268491C02B190475F
:104930006078000703D5716809B1A8098847FCF7BA
:1049400089FE0C990860002072E70000DC15002049
:104950002DE9FF41044603A802F02EF8BDF80C0033
:10496000410CC30300BF2F48028902F00300550722
:1049700054F8200000D54042C2F3C105960654F811
:10498000255000D56D42C2F38116D20554F8264059
:1049900000D56442A0FB0367C21702FB037200FB51
:1049A0000120820042EA9670A5FB0367EA1702FB2A
:1049B000037205FB0122950045EA9672A4FB03678A
:1049C000E51705FB037304FB01318B0043EA967185
:1049D000030E8DF80030030C8DF80130030A8DF8BA
:1049E00002308DF80300100E8DF80400100C8DF8C5
:1049F0000500100A8DF80600080E8DF80800080C56
:104A00008DF80900080A8DF80A008DF807208DF846
:104A10000B106A460C214FF4257002F00BFE04B017
:104A2000BDE8F081DC15002030B5044613A285B046
:104A300007CA8DE807004FF0FF35C82C16D8C820EC
:104A4000B0FBF4F1491E080A8DF80C008DF80D102A
:104A500003AA022140F2162002F0ECFD30B96A46AA
:104A60000C2140F6C12002F0E5FD10B1284605B04A
:104A700030BD054884810020F9E70000FEF2ABC498
:104A8000AAF1DFDFBBAFDFDFDC150020F8B530496E
:104A9000098901F0030250F822404A0700D5644218
:104AA000C1F3C1028B0650F8222000D55242C1F357
:104AB000811350F82330C80500D55B42254984FB9B
:104AC0000140850045EA947082FB0142A40F44EA4C
:104AD000820483FB0121950F45EA8105010E8DF8C3
:104AE0000010010C8DF80110010A8DF802108DF8EC
:104AF00003006A4604214FF4747002F09BFD4FF0EE
:104B0000FF3688B9200E8DF80000200C8DF80100CA
:104B1000200A8DF802008DF803406A4604214FF404
:104B2000757002F087FD08B13046F8BD280E8DF88B
:104B30000000280C8DF80100280A8DF802008DF87D
:104B400003506A4604214FF4767002F073FDF8BDFD
:104B5000DC15002009E3CA022DE9FF4104463CA010
:104B600004F00303006802903AA0006803903AA0A2
:104B700006683AA0056802A8C15C8DF80010C4F36D
:104B8000C101425C8DF80120C4F38112805C8DF874
:104B9000020003A8C35C8DF80430415C8DF8051059
:104BA000805C8DF806006A46032140F2264002F040
:104BB00041FD4FF0FF37E0BB01AA032140F22A403C
:104BC00002F038FDA8BBCDE9006560070BD59DF864
:104BD000000040F001008DF800009DF8040040F056
:104BE00001008DF80400A0060BD59DF8010040F0EF
:104BF00001008DF801009DF8050040F001008DF8DE
:104C00000500E0050BD59DF8020040F001008DF88D
:104C100002009DF8060040F001008DF806006A468B
:104C200003214FF4886002F005FD10B901AA0321A9
:104C300000E004E040F2314002F0FCFC18B13846DC
:104C400004B0BDE8F081064804810020F8E70000C8
:104C50004CCD6C000CC92C003656760026466600FA
:104C6000DC1500204FF47A7290FBF2F008B548434F
:104C7000010E8DF80010010C8DF80110010A8DF85D
:104C800002108DF803006A4604214FF4AE7002F062
:104C9000D1FC08BD0521B0FBF1F008B5010A8DF883
:104CA00000108DF801006A4602214FF4AD7002F049
:104CB000C1FC08BD0521B0FBF1F008B5010A8DF873
:104CC00000108DF801006A4602214FF4AC7002F02A
:104CD000B1FC08BD08B500218DF80010C10702D055
:104CE00030218DF80010810705D59DF8001041F0A6
:104CF0000C018DF80010400705D59DF8000040F02C
:104D000003008DF800006A4601214FF4A47002F000
:104D100091FC08BD08B560B1042800D90420401EEC
:104D20008DF800006A46012140F24F1002F082FC2B
:104D300008BD0120F3E700002DE9FC4105464007CE
:104D40004FF0FF367CD0B1F5C86F79D80846FBF735
:104D500098FB3E49FBF7D0FA074601A801F00EFE8A
:104D60009DF80400022806D004280DD008282ED073
:104D7000102865D134E00E213846FBF7FBFAFBF72B
:104D80009EFB84B2324907E00D213846FBF7F2FA68
:104D9000FBF795FB2F4984B23846FBF77BFAFBF70C
:104DA0008EFB210A8DF8001080B28DF80140010AB7
:104DB0008DF802108DF80300E8076C4620D02246DB
:104DC00002214FF4EA7002F035FCC8BB11E00C215F
:104DD0003846FBF7CFFAFBF772FB84B21E49DBE7DC
:104DE0000B213846FBF7C6FAFBF769FB84B21B4977
:104DF000D2E7A21C02214FF4927002F01BFCF8B91A
:104E0000A8070DD56A4602214FF4EC7002F012FC9F
:104E1000B0B9A21C02214FF4947002F00BFC78B9D7
:104E2000680710D56A4602214FF4EE7002F002FCCA
:104E300030B9A21C02214FF4967002F0FBFB10B1B6
:104E40003046BDE8FC810020FBE70000000048433D
:104E5000000040460000C045000040450000C0443E
:104E60000521B0FBF1F008B5010A8DF800108DF8AE
:104E700001006A4602214FF4EF7002F0DBFB08BD2F
:104E80000521B0FBF1F008B5010A8DF800108DF88E
:104E900001006A4602214FF4ED7002F0CBFB08BD21
:104EA00013B54FF6FF73012269460248FDF790FCE7
:104EB00000981CBD0C1500202DE9F04385B0064676
:104EC0004FF48072042104A88DE8070026480123CE
:104ED0000D22406801782548FCF786FC18B10720B0
:104EE00005B0BDE8F0839DF810101C2000EAD10247
:104EF0009DF81310DFF87890C1F301131A438DF871
:104F00000C209DF81120C1F3810300EAD2021A435C
:104F10008DF80D209DF8122001F0030100EAD20067
:104F200008430024134F8DF80E00A04603AD285D02
:104F300010B146F824900AE046F824800DE000BF46
:104F400056F824003946FBF7A5F946F82400285DF9
:104F5000401E10F0FF002855F2D1641CE4B2032C6F
:104F6000E5D30020BCE7000024000020B814002096
:104F70007B14AE3E1D5A843F2DE9F04F87B04FF0B1
:104F8000010A0C4605468DF80CA04FF000080DF103
:104F90000C098DF80D804FF4807602214846DFF829
:104FA000C4B38DE84300DBF80010DBF804001746BB
:104FB0004A7D01785346EC48FCF73EFD00287DD140
:104FC000C820FCF73FFA00208DF80C00B046CDF861
:104FD0000090CDE901A8DBF800005E460123427C89
:104FE000DBF804000178E048FCF726FD0028E6D154
:104FF000C346D046CA46CDE900A8CDF808B031680E
:105000007068B1464A7901780123D748FCF714FD4E
:105010000028D4D103A9CDE90018CDF808B0D9F8FB
:105020000010D9F804005E464A7D0178CA46012383
:10503000CD48FCF701FD0028C1D1C1460DF10C0897
:10504000B34642468DE8040ADAF8000056460123CA
:10505000827EDAF804000178C348FCF7EDFC0028F2
:10506000ADD1CA46C1468DE8000E306801230279F1
:1050700070680178BC48FCF7DFFC00289FD10C2049
:105080008DF80C00CDF80090CDE901AB3068D84622
:105090000123027970680178B348FCF7CDFC002841
:1050A0008DD10F20FCF7CEF9B06A407A8DF80C0054
:1050B000CDF80090CDE901A8306800E097E0827853
:1050C000706801230178A848FCF7B6FC00288ED14F
:1050D000B06A0123007A8DF80C00CDF80090CDE97C
:1050E00001A830684278706801789F48FCF7A4FCFA
:1050F00000287CD1B06A807A0FB140F0E0008DF8D2
:105100000C00CDF80090CDE901A830680123827928
:10511000706801789448FCF78FFC002867D127B1AC
:10512000B06AC07A40F0E00000E018208DF80C0072
:10513000CDF80090CDE901A831687068CB46CA79F6
:10514000017801238848FCF777FC002871D117B15A
:10515000C820FCF777F940208DF80C004746CDF8C1
:1051600000B0CDE901A73068D146D8460279706811
:10517000012301787C48FCF75FFCC0BB78208DF8E8
:105180000C00CDF80080CDE9019730680123427909
:10519000706801787448FCF74FFC40BB3220FCF784
:1051A00051F94FF0000ABB468DF80CA047468DE838
:1051B000800A306801234279706801786A48FCF7F8
:1051C0003BFCA0B9D94602200097CDE9010931681E
:1051D0007068BB460A7B0178B04601236248FCF741
:1051E00003FB20B9BDF80C000C2140BA00E020E020
:1051F000B0FBF1F0C5F808A0C5F804A0C5F800A000
:10520000C4F808A0C4F804A0C6B20027C4F800A0DF
:1052100040E00C21CDF800B0CDE90119D8F800101C
:10522000D8F8040001234A7B01784F48FCF7DCFAE8
:1052300020B14FF0FF3007B0BDE8F08FBDF80C0093
:10524000236840BA01B2BDF80E00194440BA02B258
:10525000BDF810002160616840BA11446160A16826
:1052600000B20844A060BDF812002B6840BA02B238
:10527000BDF81400BDF816101A442A6040BA6A68D6
:1052800000B21044686049BAA86809B208447F1C9B
:10529000FFB2A860B742BCD328688322C1170904B3
:1052A00041EA104100040023FAF73CFF3246002394
:1052B000FAF738FF286068688322C117090441EAB9
:1052C000104100040023FAF72DFF32460023FAF7BD
:1052D00029FF6860A8688322C117090441EA1041C8
:1052E00000040023FAF71EFF32460023FAF71AFFE4
:1052F000A86020684FF40065C117090441EA104115
:1053000000042A460023FAF70DFF32460023FAF77D
:1053100009FF206060682A46C117090441EA10416C
:1053200000040023FAF7FEFE32460023FAF7FAFEE5
:105330006060A0682A46C117090441EA10410004D0
:105340000023FAF7EFFE32460023FAF7EBFEA060E7
:10535000002802DDA0F5803001E000F58030A0607B
:10536000002068E724000020B81400202DE9FF5F2A
:105370008846814603AE4FF4807003210096CDE944
:1053800001102D480025012340680D2201782B488B
:10539000FCF72AFA18B1072004B0BDE8F09F9DF889
:1053A0000C00002400F01F008DF80C009DF80D008B
:1053B0006FF00F0B00F01F008DF80D009DF80E0030
:1053C0004FF0010A00F01F008DF80E0059F824106C
:1053D00058F82400081A00D54042FBF749F859460E
:1053E000FAF7C8FF0746305DC0B1154802E015491D
:1053F000FAF750FF315D491E11F0FF013155F6D12A
:1054000001463846FAF778FF4FF07E51FAF73CFF35
:105410000D4920F00040884205DC07E00B48384485
:10542000B0F1D97F02D90AFA04F00543641C032CB9
:10543000CCDB2846B0E7000024000020B814002090
:105440000000C84154E3853F295C0F3E0000E0BEE8
:1054500090F90010002902DD4FF00000704702DAD9
:105460004FF00400704790F90110002902DD4FF061
:105470000100704702DA4FF00500704790F9020012
:10548000002802DD4FF00200704702DA4FF00600FC
:1054900070474FF007007047A0B0142117A8FAF723
:1054A00089FE0127FCF796FBFDF782FEFDF7FEFD66
:1054B000FDF7D6FDFDF720FDFDF758FEFDF79EFD3B
:1054C000FDF734FEFDF7C0FC04460146FEA0FDF7E3
:1054D000F7FF002CF6D1FE48FBF7C0FB0A2217A904
:1054E000FB48FBF7A9FD0122FA49FB48FDF722F929
:1054F000F84A0932111D101FFDF7D8FBDFF8D483DD
:10550000A8F10308D8F80C00FAF7EDFF0646894623
:10551000D8F81000FAF7E7FF04460D46D8F808005F
:10552000FAF7E1FF8DE8700202460B46EBA0FDF7AB
:10553000C7FFBDF85C001390BDF868000B90BDF884
:105540006440BDF866A0BDF86A000A90BDF86E0020
:10555000089098F80000BDF86060BDF86250BDF892
:105560006CB001287ED14046417800297BD18078FB
:105570000028FBD14FF0050897FBF8F108FB1170EC
:1055800001281BD1DFF87093012208214846FCF75F
:105590005BF8012210214846FCF756F80122202131
:1055A0004846FCF751F800224FF480714846FCF75A
:1055B0004BF80120FBF746FF1398059097FBF8F195
:1055C00008FB117002281BD1DFF82C930022082160
:1055D0004846FCF739F8002210214846FCF734F819
:1055E000012220214846FCF72FF800224FF4807159
:1055F0004846FCF729F80120FBF724FF1398129086
:1056000097FBF8F108FB117003281BD1DFF8E89233
:10561000002208214846FCF717F8012210214846CD
:10562000FCF712F8002220214846FCF70DF8002272
:105630004FF480714846FCF707F80120FBF702FFA2
:105640001398119097FBF8F108FB117004281ED1F4
:10565000DFF8A492012208214846FBF7F5FF00225B
:10566000102101E03DE0BFE04846FBF7EDFF0022DE
:1056700020214846FBF7E8FF00224FF4807148469E
:10568000FBF7E2FF0120FBF7DDFE1398109097FB7C
:10569000F8F108FB117020BBDFF85C8200220821C2
:1056A0004046FBF7D1FF002210214046FBF7CCFF1C
:1056B000002220214046FBF7C7FF00224FF48071F3
:1056C0004046FBF7C1FF0120FBF7BCFE139805998C
:1056D0000690CDE90001DDE9112188A0109BFDF7BE
:1056E000EFFE7C48C01E017800297DD14178012958
:1056F000FBD180780028F8D1854807EA00011C9189
:10570000012928D1DFF8F081C10D01224046FBF7C5
:105710009BFF012208214046FBF796FF0122102142
:105720004046FBF791FF012220214046FBF78CFF0A
:105730000120FBF787FEDDE90A3CDDF82080CDE99A
:10574000023BCDE900AC31462A46CDF81080234615
:1057500070A0FDF7B5FE1C98022828D1DFF89881CB
:10576000002208214046FBF76FFF0122102140462E
:10577000FBF76AFF012220214046FBF765FF01226B
:1057800011024046FBF760FF0120FBF75BFEDDE9FD
:105790000A1CDDF82080CDE9021BCDE900AC2A46C9
:1057A0002346CDF81080314662A0FDF789FE1C9893
:1057B00003282AD1DFF84081012208214046FBF767
:1057C00043FF002210214046FBF73EFF012220212B
:1057D0004046FBF739FF012211024046FBF734FF38
:1057E0000120FBF72FFE00E03AE0DDE90A1CDDF8BE
:1057F0002080CDE9021BCDE900AC2A462346CDF836
:105800001080314653A0FDF75BFEB80728D1DFF8C2
:10581000E880002208214046FBF716FF00221021F5
:105820004046FBF711FF012220214046FBF70CFF09
:10583000012211024046FBF707FF0120FBF702FEA1
:10584000DDE90AC8DDF82090CDF800A0CDE9018C93
:10585000CDE903B92A462346314646A0FDF730FE7E
:105860001C48C01E0178407801432AD11948C01E47
:1058700080780128F9D1264907EA01001C90012807
:1058800020D1DFF87480012208214046FBF7DCFEBE
:10589000012210214046FBF7D7FE0022202140467E
:1058A000FBF7D2FE012211024046FBF7CDFE01209C
:1058B000FBF7C8FDDDE90A3C31462A46DDF82080C9
:1058C00068E0F4E070E000007265743D25640A0051
:1058D00014140020030000200C150020706974636C
:1058E000683D2566207961773D256620726F6C6C76
:1058F0003D25660A00000000000C014025642025BB
:1059000064202564202564202564200D0A00000001
:105910000300008043313220256420256420256463
:10592000202564202564202564202564202564200A
:105930000D0A0000433135202564202564202564AC
:1059400020256420256420256420256420256420EA
:105950000D0A00004331342025642025642025648D
:1059600020256420256420256420256420256420CA
:105970000D0A00004331332025642025642025646E
:1059800020256420256420256420256420256420AA
:105990000D0A0000CDE9023BCDE900ACCDF8108046
:1059A0002346FCA0FDF78CFD1C98022828D1DFF8C7
:1059B0000484002208214046FBF746FE0122102104
:1059C0004046FBF741FE002220214046FBF73CFE0B
:1059D000012211024046FBF737FE0120FBF732FDA2
:1059E000DDE90AC8DDF82090CDF800A0CDE9018CF2
:1059F000CDE903B931462A462346EFA0FDF760FD05
:105A00001C98032828D1DFF8AC83012208214046E6
:105A1000FBF71AFE002210214046FBF715FE00227C
:105A200020214046FBF710FE012211024046FBF701
:105A30000BFE0120FBF706FDDDE90A3CDDF82080C6
:105A4000CDE9023BCDE900AC31462A46CDF81080C5
:105A50002346E1A0FDF734FDB80728D1DFF85483D1
:105A6000002208214046FBF7EFFD002210214046AE
:105A7000FBF7EAFD002220214046FBF7E5FD01226D
:105A800011024046FBF7E0FD0120FBF7DBFCDDE9FE
:105A90000A3CDDF82080CDE9023BCDE900AC31467F
:105AA0002A46CDF810802346D3A0FDF709FDDA4839
:105AB000007801287ED1D848417801297BD18078AF
:105AC000002879D1092097FBF0F100FB1170012823
:105AD0002AD1DFF8E082012208214046FBF7B4FD1D
